{
  "_format": "hh-sol-artifact-1",
  "contractName": "MaliciousBuyer",
  "sourceName": "contracts/test/MaliciousBuyer.sol",
  "abi": [
    {
      "inputs": [
        {
          "internalType": "address",
          "name": "marketplaceAddress",
          "type": "address"
        }
      ],
      "stateMutability": "nonpayable",
      "type": "constructor"
    },
    {
      "inputs": [
        {
          "internalType": "uint256",
          "name": "tokenId",
          "type": "uint256"
        }
      ],
      "name": "attack",
      "outputs": [],
      "stateMutability": "payable",
      "type": "function"
    },
    {
      "inputs": [],
      "name": "attackPrice",
      "outputs": [
        {
          "internalType": "uint256",
          "name": "",
          "type": "uint256"
        }
      ],
      "stateMutability": "view",
      "type": "function"
    },
    {
      "inputs": [],
      "name": "attacked",
      "outputs": [
        {
          "internalType": "bool",
          "name": "",
          "type": "bool"
        }
      ],
      "stateMutability": "view",
      "type": "function"
    },
    {
      "inputs": [],
      "name": "marketplace",
      "outputs": [
        {
          "internalType": "contract IMarketplace",
          "name": "",
          "type": "address"
        }
      ],
      "stateMutability": "view",
      "type": "function"
    },
    {
      "inputs": [
        {
          "internalType": "address",
          "name": "",
          "type": "address"
        },
        {
          "internalType": "address",
          "name": "",
          "type": "address"
        },
        {
          "internalType": "uint256",
          "name": "",
          "type": "uint256"
        },
        {
          "internalType": "bytes",
          "name": "",
          "type": "bytes"
        }
      ],
      "name": "onERC721Received",
      "outputs": [
        {
          "internalType": "bytes4",
          "name": "",
          "type": "bytes4"
        }
      ],
      "stateMutability": "nonpayable",
      "type": "function"
    },
    {
      "inputs": [
        {
          "internalType": "uint256",
          "name": "tokenId",
          "type": "uint256"
        },
        {
          "internalType": "uint256",
          "name": "price",
          "type": "uint256"
        }
      ],
      "name": "setTarget",
      "outputs": [],
      "stateMutability": "nonpayable",
      "type": "function"
    },
    {
      "inputs": [],
      "name": "targetTokenId",
      "outputs": [
        {
          "internalType": "uint256",
          "name": "",
          "type": "uint256"
        }
      ],
      "stateMutability": "view",
      "type": "function"
    },
    {
      "stateMutability": "payable",
      "type": "receive"
    }
  ],
  "bytecode": "0x60a060405234801561000f575f80fd5b5060405161047638038061047683398101604081905261002e9161003f565b6001600160a01b031660805261006c565b5f6020828403121561004f575f80fd5b81516001600160a01b0381168114610065575f80fd5b9392505050565b6080516103e46100925f395f818161012c015281816101db015261026601526103e45ff3fe608060405260043610610071575f3560e01c806364dd891a1161004c57806364dd891a14610108578063abc8c7af1461011b578063b496739414610166578063d517170a14610188575f80fd5b80631105f9411461007c578063150b7a02146100aa5780631d0f2c99146100e2575f80fd5b3661007857005b5f80fd5b348015610087575f80fd5b506002546100959060ff1681565b60405190151581526020015b60405180910390f35b3480156100b5575f80fd5b506100c96100c43660046102e4565b61019d565b6040516001600160e01b031990911681526020016100a1565b3480156100ed575f80fd5b506101066100fc366004610377565b5f91909155600155565b005b610106610116366004610397565b610246565b348015610126575f80fd5b5061014e7f000000000000000000000000000000000000000000000000000000000000000081565b6040516001600160a01b0390911681526020016100a1565b348015610171575f80fd5b5061017a5f5481565b6040519081526020016100a1565b348015610193575f80fd5b5061017a60015481565b6002545f9060ff16610234576002805460ff19166001908117909155545f54604051632d296bf160e01b815260048101919091526001600160a01b037f00000000000000000000000000000000000000000000000000000000000000001691632d296bf1916024015f604051808303818588803b15801561021c575f80fd5b505af115801561022e573d5f803e3d5ffd5b50505050505b50630a85bd0160e11b95945050505050565b5f819055346001819055604051632d296bf160e01b8152600481018390527f00000000000000000000000000000000000000000000000000000000000000006001600160a01b031691632d296bf1916024015f604051808303818588803b1580156102af575f80fd5b505af11580156102c1573d5f803e3d5ffd5b505050505050565b80356001600160a01b03811681146102df575f80fd5b919050565b5f805f805f608086880312156102f8575f80fd5b610301866102c9565b945061030f602087016102c9565b935060408601359250606086013567ffffffffffffffff80821115610332575f80fd5b818801915088601f830112610345575f80fd5b813581811115610353575f80fd5b896020828501011115610364575f80fd5b9699959850939650602001949392505050565b5f8060408385031215610388575f80fd5b50508035926020909101359150565b5f602082840312156103a7575f80fd5b503591905056fea264697066735822122074369197e1a2c62cdfc5197604b5113adf82aa9bf458933e20e2abe0b43a365064736f6c63430008180033",
  "linkReferences": {},
  "deployedLinkReferences": {}
}