{"contracts/SonicVoiceMarketplace.sol":{"SonicVoiceMarketplace":{"abi":[{"inputs":[{"internalType":"address","name":"nftAddress","type":"address"}],"stateMutability":"nonpayable","type":"constructor"},{"inputs":[],"name":"ReentrancyGuardReentrantCall","type":"error"},{"anonymous":false,"inputs":[{"indexed":true,"internalType":"uint256","name":"tokenId","type":"uint256"},{"indexed":true,"internalType":"address","name":"seller","type":"address"}],"name":"Cancelled","type":"event"},{"anonymous":false,"inputs":[{"indexed":true,"internalType":"uint256","name":"tokenId","type":"uint256"},{"indexed":true,"internalType":"address","name":"seller","type":"address"},{"indexed":false,"internalType":"uint256","name":"price","type":"uint256"}],"name":"Listed","type":"event"},{"anonymous":false,"inputs":[{"indexed":true,"internalType":"uint256","name":"tokenId","type":"uint256"},{"indexed":true,"internalType":"address","name":"seller","type":"address"},{"indexed":true,"internalType":"address","name":"buyer","type":"address"},{"indexed":false,"internalType":"uint256","name":"price","type":"uint256"}],"name":"Sold","type":"event"},{"inputs":[{"internalType":"uint256","name":"tokenId","type":"uint256"}],"name":"buyToken","outputs":[],"stateMutability":"payable","type":"function"},{"inputs":[{"internalType":"uint256","name":"tokenId","type":"uint256"}],"name":"cancelListing","outputs":[],"stateMutability":"nonpayable","type":"function"},{"inputs":[],"name":"getActiveCount","outputs":[{"internalType":"uint256","name":"","type":"uint256"}],"stateMutability":"view","type":"function"},{"inputs":[{"internalType":"uint256","name":"offset","type":"uint256"},{"internalType":"uint256","name":"limit","type":"uint256"}],"name":"getActiveListings","outputs":[{"internalType":"uint256[]","name":"tokenIds","type":"uint256[]"},{"components":[{"internalType":"address","name":"seller","type":"address"},{"internalType":"uint256","name":"price","type":"uint256"},{"internalType":"bool","name":"active","type":"bool"}],"internalType":"struct SonicVoiceMarketplace.Listing[]","name":"data","type":"tuple[]"}],"stateMutability":"view","type":"function"},{"inputs":[{"internalType":"uint256","name":"tokenId","type":"uint256"}],"name":"getListing","outputs":[{"components":[{"internalType":"address","name":"seller","type":"address"},{"internalType":"uint256","name":"price","type":"uint256"},{"internalType":"bool","name":"active","type":"bool"}],"internalType":"struct SonicVoiceMarketplace.Listing","name":"","type":"tuple"}],"stateMutability":"view","type":"function"},{"inputs":[{"internalType":"uint256","name":"tokenId","type":"uint256"},{"internalType":"uint256","name":"price","type":"uint256"}],"name":"listToken","outputs":[],"stateMutability":"nonpayable","type":"function"},{"inputs":[],"name":"nft","outputs":[{"internalType":"contract IERC721","name":"","type":"address"}],"stateMutability":"view","type":"function"},{"inputs":[{"internalType":"address","name":"","type":"address"},{"internalType":"address","name":"","type":"address"},{"internalType":"uint256","name":"","type":"uint256"},{"internalType":"bytes","name":"","type":"bytes"}],"name":"onERC721Received","outputs":[{"internalType":"bytes4","name":"","type":"bytes4"}],"stateMutability":"pure","type":"function"}],"evm":{"bytecode":{"linkReferences":{},"object":"60a060405234801561000f575f80fd5b50604051610f8d380380610f8d83398101604081905261002e91610063565b60017f9b779b17422d0df92223018b32b4d1fa46e071723d6817e2486d003becc55f00556001600160a01b0316608052610090565b5f60208284031215610073575f80fd5b81516001600160a01b0381168114610089575f80fd5b9392505050565b608051610ec96100c45f395f818161018d015281816103070152818161058b0152818161065601526106ea0152610ec95ff3fe608060405260043610610079575f3560e01c806347ccca021161004c57806347ccca021461017c57806363338b17146101c757806375c1631d146101e4578063c128b23114610203575f80fd5b8063107a274a1461007d578063150b7a02146101045780632d296bf114610148578063305a67a81461015d575b5f80fd5b348015610088575f80fd5b506100ee610097366004610c07565b60408051606080820183525f8083526020808401829052928401819052938452838252928290208251938401835280546001600160a01b031684526001810154918401919091526002015460ff1615159082015290565b6040516100fb9190610c1e565b60405180910390f35b34801561010f575f80fd5b5061012f61011e366004610c60565b630a85bd0160e11b95945050505050565b6040516001600160e01b031990911681526020016100fb565b61015b610156366004610c07565b610230565b005b348015610168575f80fd5b5061015b610177366004610c07565b61046c565b348015610187575f80fd5b506101af7f000000000000000000000000000000000000000000000000000000000000000081565b6040516001600160a01b0390911681526020016100fb565b3480156101d2575f80fd5b506001546040519081526020016100fb565b3480156101ef575f80fd5b5061015b6101fe366004610cf7565b610528565b34801561020e575f80fd5b5061022261021d366004610cf7565b6108b4565b6040516100fb929190610d17565b610238610aa8565b5f818152602081905260409020600281015460ff166102725760405162461bcd60e51b815260040161026990610db8565b60405180910390fd5b806001015434146102b35760405162461bcd60e51b815260206004820152600b60248201526a77726f6e672076616c756560a81b6044820152606401610269565b8054600182015460028301805460ff191690556001600160a01b03909116906102db84610ad6565b604051632142170760e11b81526001600160a01b038381166004830152336024830152604482018690527f000000000000000000000000000000000000000000000000000000000000000016906342842e0e906064015f604051808303815f87803b158015610348575f80fd5b505af115801561035a573d5f803e3d5ffd5b505050505f826001600160a01b0316826040515f6040518083038185875af1925050503d805f81146103a7576040519150601f19603f3d011682016040523d82523d5f602084013e6103ac565b606091505b50509050806103ee5760405162461bcd60e51b815260206004820152600e60248201526d1c185e5b595b9d0819985a5b195960921b6044820152606401610269565b336001600160a01b0316836001600160a01b0316867f23f50d55776d8003622a982ade45a6c7f083116c8dbbcd980f59942f440badb18560405161043491815260200190565b60405180910390a45050505061046960017f9b779b17422d0df92223018b32b4d1fa46e071723d6817e2486d003becc55f0055565b50565b5f818152602081905260409020600281015460ff1661049d5760405162461bcd60e51b815260040161026990610db8565b80546001600160a01b031633146104e35760405162461bcd60e51b815260206004820152600a6024820152693737ba1039b2b63632b960b11b6044820152606401610269565b60028101805460ff191690556104f882610ad6565b604051339083907f26deca31ff8139a06c52453ce8985d34f7648a6d9af1d283c4063d052c355a0f905f90a35050565b5f811161056b5760405162461bcd60e51b815260206004820152601160248201527007072696365206d757374206265203e203607c1b6044820152606401610269565b6040516331a9108f60e11b81526004810183905233906001600160a01b037f00000000000000000000000000000000000000000000000000000000000000001690636352211e90602401602060405180830381865afa1580156105d0573d5f803e3d5ffd5b505050506040513d601f19601f820116820180604052508101906105f49190610ddc565b6001600160a01b0316146106365760405162461bcd60e51b81526020600482015260096024820152683737ba1037bbb732b960b91b6044820152606401610269565b60405163020604bf60e21b81526004810183905230906001600160a01b037f0000000000000000000000000000000000000000000000000000000000000000169063081812fc90602401602060405180830381865afa15801561069b573d5f803e3d5ffd5b505050506040513d601f19601f820116820180604052508101906106bf9190610ddc565b6001600160a01b0316148061075b575060405163e985e9c560e01b81523360048201523060248201527f00000000000000000000000000000000000000000000000000000000000000006001600160a01b03169063e985e9c590604401602060405180830381865afa158015610737573d5f803e3d5ffd5b505050506040513d601f19601f8201168201806040525081019061075b9190610dfe565b6107965760405162461bcd60e51b815260206004820152600c60248201526b1b9bdd08185c1c1c9bdd995960a21b6044820152606401610269565b5f8281526020819052604090206002015460ff16156107e85760405162461bcd60e51b815260206004820152600e60248201526d185b1c9958591e481b1a5cdd195960921b6044820152606401610269565b6040805160608101825233808252602080830185815260018486018181525f898152808552878120965187546001600160a01b0319166001600160a01b03909116178755925186830155516002958601805460ff1916911515919091179055805480820182557fb10e2d527612073b26eecdfd717e6a320cf44b4afac2b0732d9fcbe2b7fa0cf6018890555493825284902092909255915183815284917f50955776c5778c3b7d968d86d8c51fb6b29a7a74c20866b533268e209fc08343910160405180910390a35050565b600154606090819080851061091657604080515f8082526020820181815282840190935290919061090b565b604080516060810182525f80825260208083018290529282015282525f199092019101816108e05790505b509250925050610aa1565b5f6109218587610e45565b90508181111561092e5750805b5f6109398783610e58565b90508067ffffffffffffffff81111561095457610954610e1d565b60405190808252806020026020018201604052801561097d578160200160208202803683370190505b5094508067ffffffffffffffff81111561099957610999610e1d565b6040519080825280602002602001820160405280156109e257816020015b604080516060810182525f80825260208083018290529282015282525f199092019101816109b75790505b5093505f5b81811015610a9c575f60016109fc838b610e45565b81548110610a0c57610a0c610e6b565b905f5260205f200154905080878381518110610a2a57610a2a610e6b565b6020908102919091018101919091525f828152808252604090819020815160608101835281546001600160a01b031681526001820154938101939093526002015460ff161515908201528651879084908110610a8857610a88610e6b565b6020908102919091010152506001016109e7565b505050505b9250929050565b610ab0610bc3565b60027f9b779b17422d0df92223018b32b4d1fa46e071723d6817e2486d003becc55f0055565b5f8181526002602052604081205490819003610b045760405162461bcd60e51b815260040161026990610db8565b5f610b10600183610e58565b600180549192505f91610b239190610e58565b9050808214610b85575f60018281548110610b4057610b40610e6b565b905f5260205f20015490508060018481548110610b5f57610b5f610e6b565b5f91825260209091200155610b75836001610e45565b5f91825260026020526040909120555b6001805480610b9657610b96610e7f565b600190038181905f5260205f20015f9055905560025f8581526020019081526020015f205f905550505050565b7f9b779b17422d0df92223018b32b4d1fa46e071723d6817e2486d003becc55f0054600203610c0557604051633ee5aeb560e01b815260040160405180910390fd5b565b5f60208284031215610c17575f80fd5b5035919050565b81516001600160a01b0316815260208083015190820152604080830151151590820152606081015b92915050565b6001600160a01b0381168114610469575f80fd5b5f805f805f60808688031215610c74575f80fd5b8535610c7f81610c4c565b94506020860135610c8f81610c4c565b935060408601359250606086013567ffffffffffffffff80821115610cb2575f80fd5b818801915088601f830112610cc5575f80fd5b813581811115610cd3575f80fd5b896020828501011115610ce4575f80fd5b9699959850939650602001949392505050565b5f8060408385031215610d08575f80fd5b50508035926020909101359150565b604080825283519082018190525f90606090818401906020808801855b83811015610d5057815185529382019390820190600101610d34565b505085830381870152865180845287820193820192505f5b81811015610daa57610d9a84865180516001600160a01b03168252602080820151908301526040908101511515910152565b9382019392850192600101610d68565b509198975050505050505050565b6020808252600a90820152696e6f742061637469766560b01b604082015260600190565b5f60208284031215610dec575f80fd5b8151610df781610c4c565b9392505050565b5f60208284031215610e0e575f80fd5b81518015158114610df7575f80fd5b634e487b7160e01b5f52604160045260245ffd5b634e487b7160e01b5f52601160045260245ffd5b80820180821115610c4657610c46610e31565b81810381811115610c4657610c46610e31565b634e487b7160e01b5f52603260045260245ffd5b634e487b7160e01b5f52603160045260245ffdfea2646970667358221220985dff7535dd12f47979eb0bbedd9241e4d6b744e81408bf6741356dade4d1fe64736f6c63430008180033","opcodes":"PUSH1 0xA0 PUSH1 0x40 MSTORE CALLVALUE DUP1 ISZERO PUSH2 0xF JUMPI PUSH0 DUP1 REVERT JUMPDEST POP PUSH1 0x40 MLOAD PUSH2 0xF8D CODESIZE SUB DUP1 PUSH2 0xF8D DUP4 CODECOPY DUP2 ADD PUSH1 0x40 DUP2 SWAP1 MSTORE PUSH2 0x2E SWAP2 PUSH2 0x63 JUMP JUMPDEST PUSH1 0x1 PUSH32 0x9B779B17422D0DF92223018B32B4D1FA46E071723D6817E2486D003BECC55F00 SSTORE PUSH1 0x1 PUSH1 0x1 PUSH1 0xA0 SHL SUB AND PUSH1 0x80 MSTORE PUSH2 0x90 JUMP JUMPDEST PUSH0 PUSH1 0x20 DUP3 DUP5 SUB SLT ISZERO PUSH2 0x73 JUMPI PUSH0 DUP1 REVERT JUMPDEST DUP2 MLOAD PUSH1 0x1 PUSH1 0x1 PUSH1 0xA0 SHL SUB DUP2 AND DUP2 EQ PUSH2 0x89 JUMPI PUSH0 DUP1 REVERT JUMPDEST SWAP4 SWAP3 POP POP POP JUMP JUMPDEST PUSH1 0x80 MLOAD PUSH2 0xEC9 PUSH2 0xC4 PUSH0 CODECOPY PUSH0 DUP2 DUP2 PUSH2 0x18D ADD MSTORE DUP2 DUP2 PUSH2 0x307 ADD MSTORE DUP2 DUP2 PUSH2 0x58B ADD MSTORE DUP2 DUP2 PUSH2 0x656 ADD MSTORE PUSH2 0x6EA ADD MSTORE PUSH2 0xEC9 PUSH0 RETURN INVALID PUSH1 0x80 PUSH1 0x40 MSTORE PUSH1 0x4 CALLDATASIZE LT PUSH2 0x79 JUMPI PUSH0 CALLDATALOAD PUSH1 0xE0 SHR DUP1 PUSH4 0x47CCCA02 GT PUSH2 0x4C JUMPI DUP1 PUSH4 0x47CCCA02 EQ PUSH2 0x17C JUMPI DUP1 PUSH4 0x63338B17 EQ PUSH2 0x1C7 JUMPI DUP1 PUSH4 0x75C1631D EQ PUSH2 0x1E4 JUMPI DUP1 PUSH4 0xC128B231 EQ PUSH2 0x203 JUMPI PUSH0 DUP1 REVERT JUMPDEST DUP1 PUSH4 0x107A274A EQ PUSH2 0x7D JUMPI DUP1 PUSH4 0x150B7A02 EQ PUSH2 0x104 JUMPI DUP1 PUSH4 0x2D296BF1 EQ PUSH2 0x148 JUMPI DUP1 PUSH4 0x305A67A8 EQ PUSH2 0x15D JUMPI JUMPDEST PUSH0 DUP1 REVERT JUMPDEST CALLVALUE DUP1 ISZERO PUSH2 0x88 JUMPI PUSH0 DUP1 REVERT JUMPDEST POP PUSH2 0xEE PUSH2 0x97 CALLDATASIZE PUSH1 0x4 PUSH2 0xC07 JUMP JUMPDEST PUSH1 0x40 DUP1 MLOAD PUSH1 0x60 DUP1 DUP3 ADD DUP4 MSTORE PUSH0 DUP1 DUP4 MSTORE PUSH1 0x20 DUP1 DUP5 ADD DUP3 SWAP1 MSTORE SWAP3 DUP5 ADD DUP2 SWAP1 MSTORE SWAP4 DUP5 MSTORE DUP4 DUP3 MSTORE SWAP3 DUP3 SWAP1 KECCAK256 DUP3 MLOAD SWAP4 DUP5 ADD DUP4 MSTORE DUP1 SLOAD PUSH1 0x1 PUSH1 0x1 PUSH1 0xA0 SHL SUB AND DUP5 MSTORE PUSH1 0x1 DUP2 ADD SLOAD SWAP2 DUP5 ADD SWAP2 SWAP1 SWAP2 MSTORE PUSH1 0x2 ADD SLOAD PUSH1 0xFF AND ISZERO ISZERO SWAP1 DUP3 ADD MSTORE SWAP1 JUMP JUMPDEST PUSH1 0x40 MLOAD PUSH2 0xFB SWAP2 SWAP1 PUSH2 0xC1E JUMP JUMPDEST PUSH1 0x40 MLOAD DUP1 SWAP2 SUB SWAP1 RETURN JUMPDEST CALLVALUE DUP1 ISZERO PUSH2 0x10F JUMPI PUSH0 DUP1 REVERT JUMPDEST POP PUSH2 0x12F PUSH2 0x11E CALLDATASIZE PUSH1 0x4 PUSH2 0xC60 JUMP JUMPDEST PUSH4 0xA85BD01 PUSH1 0xE1 SHL SWAP6 SWAP5 POP POP POP POP POP JUMP JUMPDEST PUSH1 0x40 MLOAD PUSH1 0x1 PUSH1 0x1 PUSH1 0xE0 SHL SUB NOT SWAP1 SWAP2 AND DUP2 MSTORE PUSH1 0x20 ADD PUSH2 0xFB JUMP JUMPDEST PUSH2 0x15B PUSH2 0x156 CALLDATASIZE PUSH1 0x4 PUSH2 0xC07 JUMP JUMPDEST PUSH2 0x230 JUMP JUMPDEST STOP JUMPDEST CALLVALUE DUP1 ISZERO PUSH2 0x168 JUMPI PUSH0 DUP1 REVERT JUMPDEST POP PUSH2 0x15B PUSH2 0x177 CALLDATASIZE PUSH1 0x4 PUSH2 0xC07 JUMP JUMPDEST PUSH2 0x46C JUMP JUMPDEST CALLVALUE DUP1 ISZERO PUSH2 0x187 JUMPI PUSH0 DUP1 REVERT JUMPDEST POP PUSH2 0x1AF PUSH32 0x0 DUP2 JUMP JUMPDEST PUSH1 0x40 MLOAD PUSH1 0x1 PUSH1 0x1 PUSH1 0xA0 SHL SUB SWAP1 SWAP2 AND DUP2 MSTORE PUSH1 0x20 ADD PUSH2 0xFB JUMP JUMPDEST CALLVALUE DUP1 ISZERO PUSH2 0x1D2 JUMPI PUSH0 DUP1 REVERT JUMPDEST POP PUSH1 0x1 SLOAD PUSH1 0x40 MLOAD SWAP1 DUP2 MSTORE PUSH1 0x20 ADD PUSH2 0xFB JUMP JUMPDEST CALLVALUE DUP1 ISZERO PUSH2 0x1EF JUMPI PUSH0 DUP1 REVERT JUMPDEST POP PUSH2 0x15B PUSH2 0x1FE CALLDATASIZE PUSH1 0x4 PUSH2 0xCF7 JUMP JUMPDEST PUSH2 0x528 JUMP JUMPDEST CALLVALUE DUP1 ISZERO PUSH2 0x20E JUMPI PUSH0 DUP1 REVERT JUMPDEST POP PUSH2 0x222 PUSH2 0x21D CALLDATASIZE PUSH1 0x4 PUSH2 0xCF7 JUMP JUMPDEST PUSH2 0x8B4 JUMP JUMPDEST PUSH1 0x40 MLOAD PUSH2 0xFB SWAP3 SWAP2 SWAP1 PUSH2 0xD17 JUMP JUMPDEST PUSH2 0x238 PUSH2 0xAA8 JUMP JUMPDEST PUSH0 DUP2 DUP2 MSTORE PUSH1 0x20 DUP2 SWAP1 MSTORE PUSH1 0x40 SWAP1 KECCAK256 PUSH1 0x2 DUP2 ADD SLOAD PUSH1 0xFF AND PUSH2 0x272 JUMPI PUSH1 0x40 MLOAD PUSH3 0x461BCD PUSH1 0xE5 SHL DUP2 MSTORE PUSH1 0x4 ADD PUSH2 0x269 SWAP1 PUSH2 0xDB8 JUMP JUMPDEST PUSH1 0x40 MLOAD DUP1 SWAP2 SUB SWAP1 REVERT JUMPDEST DUP1 PUSH1 0x1 ADD SLOAD CALLVALUE EQ PUSH2 0x2B3 JUMPI PUSH1 0x40 MLOAD PUSH3 0x461BCD PUSH1 0xE5 SHL DUP2 MSTORE PUSH1 0x20 PUSH1 0x4 DUP3 ADD MSTORE PUSH1 0xB PUSH1 0x24 DUP3 ADD MSTORE PUSH11 0x77726F6E672076616C7565 PUSH1 0xA8 SHL PUSH1 0x44 DUP3 ADD MSTORE PUSH1 0x64 ADD PUSH2 0x269 JUMP JUMPDEST DUP1 SLOAD PUSH1 0x1 DUP3 ADD SLOAD PUSH1 0x2 DUP4 ADD DUP1 SLOAD PUSH1 0xFF NOT AND SWAP1 SSTORE PUSH1 0x1 PUSH1 0x1 PUSH1 0xA0 SHL SUB SWAP1 SWAP2 AND SWAP1 PUSH2 0x2DB DUP5 PUSH2 0xAD6 JUMP JUMPDEST PUSH1 0x40 MLOAD PUSH4 0x21421707 PUSH1 0xE1 SHL DUP2 MSTORE PUSH1 0x1 PUSH1 0x1 PUSH1 0xA0 SHL SUB DUP4 DUP2 AND PUSH1 0x4 DUP4 ADD MSTORE CALLER PUSH1 0x24 DUP4 ADD MSTORE PUSH1 0x44 DUP3 ADD DUP7 SWAP1 MSTORE PUSH32 0x0 AND SWAP1 PUSH4 0x42842E0E SWAP1 PUSH1 0x64 ADD PUSH0 PUSH1 0x40 MLOAD DUP1 DUP4 SUB DUP2 PUSH0 DUP8 DUP1 EXTCODESIZE ISZERO DUP1 ISZERO PUSH2 0x348 JUMPI PUSH0 DUP1 REVERT JUMPDEST POP GAS CALL ISZERO DUP1 ISZERO PUSH2 0x35A JUMPI RETURNDATASIZE PUSH0 DUP1 RETURNDATACOPY RETURNDATASIZE PUSH0 REVERT JUMPDEST POP POP POP POP PUSH0 DUP3 PUSH1 0x1 PUSH1 0x1 PUSH1 0xA0 SHL SUB AND DUP3 PUSH1 0x40 MLOAD PUSH0 PUSH1 0x40 MLOAD DUP1 DUP4 SUB DUP2 DUP6 DUP8 GAS CALL SWAP3 POP POP POP RETURNDATASIZE DUP1 PUSH0 DUP2 EQ PUSH2 0x3A7 JUMPI PUSH1 0x40 MLOAD SWAP2 POP PUSH1 0x1F NOT PUSH1 0x3F RETURNDATASIZE ADD AND DUP3 ADD PUSH1 0x40 MSTORE RETURNDATASIZE DUP3 MSTORE RETURNDATASIZE PUSH0 PUSH1 0x20 DUP5 ADD RETURNDATACOPY PUSH2 0x3AC JUMP JUMPDEST PUSH1 0x60 SWAP2 POP JUMPDEST POP POP SWAP1 POP DUP1 PUSH2 0x3EE JUMPI PUSH1 0x40 MLOAD PUSH3 0x461BCD PUSH1 0xE5 SHL DUP2 MSTORE PUSH1 0x20 PUSH1 0x4 DUP3 ADD MSTORE PUSH1 0xE PUSH1 0x24 DUP3 ADD MSTORE PUSH14 0x1C185E5B595B9D0819985A5B1959 PUSH1 0x92 SHL PUSH1 0x44 DUP3 ADD MSTORE PUSH1 0x64 ADD PUSH2 0x269 JUMP JUMPDEST CALLER PUSH1 0x1 PUSH1 0x1 PUSH1 0xA0 SHL SUB AND DUP4 PUSH1 0x1 PUSH1 0x1 PUSH1 0xA0 SHL SUB AND DUP7 PUSH32 0x23F50D55776D8003622A982ADE45A6C7F083116C8DBBCD980F59942F440BADB1 DUP6 PUSH1 0x40 MLOAD PUSH2 0x434 SWAP2 DUP2 MSTORE PUSH1 0x20 ADD SWAP1 JUMP JUMPDEST PUSH1 0x40 MLOAD DUP1 SWAP2 SUB SWAP1 LOG4 POP POP POP POP PUSH2 0x469 PUSH1 0x1 PUSH32 0x9B779B17422D0DF92223018B32B4D1FA46E071723D6817E2486D003BECC55F00 SSTORE JUMP JUMPDEST POP JUMP JUMPDEST PUSH0 DUP2 DUP2 MSTORE PUSH1 0x20 DUP2 SWAP1 MSTORE PUSH1 0x40 SWAP1 KECCAK256 PUSH1 0x2 DUP2 ADD SLOAD PUSH1 0xFF AND PUSH2 0x49D JUMPI PUSH1 0x40 MLOAD PUSH3 0x461BCD PUSH1 0xE5 SHL DUP2 MSTORE PUSH1 0x4 ADD PUSH2 0x269 SWAP1 PUSH2 0xDB8 JUMP JUMPDEST DUP1 SLOAD PUSH1 0x1 PUSH1 0x1 PUSH1 0xA0 SHL SUB AND CALLER EQ PUSH2 0x4E3 JUMPI PUSH1 0x40 MLOAD PUSH3 0x461BCD PUSH1 0xE5 SHL DUP2 MSTORE PUSH1 0x20 PUSH1 0x4 DUP3 ADD MSTORE PUSH1 0xA PUSH1 0x24 DUP3 ADD MSTORE PUSH10 0x3737BA1039B2B63632B9 PUSH1 0xB1 SHL PUSH1 0x44 DUP3 ADD MSTORE PUSH1 0x64 ADD PUSH2 0x269 JUMP JUMPDEST PUSH1 0x2 DUP2 ADD DUP1 SLOAD PUSH1 0xFF NOT AND SWAP1 SSTORE PUSH2 0x4F8 DUP3 PUSH2 0xAD6 JUMP JUMPDEST PUSH1 0x40 MLOAD CALLER SWAP1 DUP4 SWAP1 PUSH32 0x26DECA31FF8139A06C52453CE8985D34F7648A6D9AF1D283C4063D052C355A0F SWAP1 PUSH0 SWAP1 LOG3 POP POP JUMP JUMPDEST PUSH0 DUP2 GT PUSH2 0x56B JUMPI PUSH1 0x40 MLOAD PUSH3 0x461BCD PUSH1 0xE5 SHL DUP2 MSTORE PUSH1 0x20 PUSH1 0x4 DUP3 ADD MSTORE PUSH1 0x11 PUSH1 0x24 DUP3 ADD MSTORE PUSH17 0x7072696365206D757374206265203E203 PUSH1 0x7C SHL PUSH1 0x44 DUP3 ADD MSTORE PUSH1 0x64 ADD PUSH2 0x269 JUMP JUMPDEST PUSH1 0x40 MLOAD PUSH4 0x31A9108F PUSH1 0xE1 SHL DUP2 MSTORE PUSH1 0x4 DUP2 ADD DUP4 SWAP1 MSTORE CALLER SWAP1 PUSH1 0x1 PUSH1 0x1 PUSH1 0xA0 SHL SUB PUSH32 0x0 AND SWAP1 PUSH4 0x6352211E SWAP1 PUSH1 0x24 ADD PUSH1 0x20 PUSH1 0x40 MLOAD DUP1 DUP4 SUB DUP2 DUP7 GAS STATICCALL ISZERO DUP1 ISZERO PUSH2 0x5D0 JUMPI RETURNDATASIZE PUSH0 DUP1 RETURNDATACOPY RETURNDATASIZE PUSH0 REVERT JUMPDEST POP POP POP POP PUSH1 0x40 MLOAD RETURNDATASIZE PUSH1 0x1F NOT PUSH1 0x1F DUP3 ADD AND DUP3 ADD DUP1 PUSH1 0x40 MSTORE POP DUP2 ADD SWAP1 PUSH2 0x5F4 SWAP2 SWAP1 PUSH2 0xDDC JUMP JUMPDEST PUSH1 0x1 PUSH1 0x1 PUSH1 0xA0 SHL SUB AND EQ PUSH2 0x636 JUMPI PUSH1 0x40 MLOAD PUSH3 0x461BCD PUSH1 0xE5 SHL DUP2 MSTORE PUSH1 0x20 PUSH1 0x4 DUP3 ADD MSTORE PUSH1 0x9 PUSH1 0x24 DUP3 ADD MSTORE PUSH9 0x3737BA1037BBB732B9 PUSH1 0xB9 SHL PUSH1 0x44 DUP3 ADD MSTORE PUSH1 0x64 ADD PUSH2 0x269 JUMP JUMPDEST PUSH1 0x40 MLOAD PUSH4 0x20604BF PUSH1 0xE2 SHL DUP2 MSTORE PUSH1 0x4 DUP2 ADD DUP4 SWAP1 MSTORE ADDRESS SWAP1 PUSH1 0x1 PUSH1 0x1 PUSH1 0xA0 SHL SUB PUSH32 0x0 AND SWAP1 PUSH4 0x81812FC SWAP1 PUSH1 0x24 ADD PUSH1 0x20 PUSH1 0x40 MLOAD DUP1 DUP4 SUB DUP2 DUP7 GAS STATICCALL ISZERO DUP1 ISZERO PUSH2 0x69B JUMPI RETURNDATASIZE PUSH0 DUP1 RETURNDATACOPY RETURNDATASIZE PUSH0 REVERT JUMPDEST POP POP POP POP PUSH1 0x40 MLOAD RETURNDATASIZE PUSH1 0x1F NOT PUSH1 0x1F DUP3 ADD AND DUP3 ADD DUP1 PUSH1 0x40 MSTORE POP DUP2 ADD SWAP1 PUSH2 0x6BF SWAP2 SWAP1 PUSH2 0xDDC JUMP JUMPDEST PUSH1 0x1 PUSH1 0x1 PUSH1 0xA0 SHL SUB AND EQ DUP1 PUSH2 0x75B JUMPI POP PUSH1 0x40 MLOAD PUSH4 0xE985E9C5 PUSH1 0xE0 SHL DUP2 MSTORE CALLER PUSH1 0x4 DUP3 ADD MSTORE ADDRESS PUSH1 0x24 DUP3 ADD MSTORE PUSH32 0x0 PUSH1 0x1 PUSH1 0x1 PUSH1 0xA0 SHL SUB AND SWAP1 PUSH4 0xE985E9C5 SWAP1 PUSH1 0x44 ADD PUSH1 0x20 PUSH1 0x40 MLOAD DUP1 DUP4 SUB DUP2 DUP7 GAS STATICCALL ISZERO DUP1 ISZERO PUSH2 0x737 JUMPI RETURNDATASIZE PUSH0 DUP1 RETURNDATACOPY RETURNDATASIZE PUSH0 REVERT JUMPDEST POP POP POP POP PUSH1 0x40 MLOAD RETURNDATASIZE PUSH1 0x1F NOT PUSH1 0x1F DUP3 ADD AND DUP3 ADD DUP1 PUSH1 0x40 MSTORE POP DUP2 ADD SWAP1 PUSH2 0x75B SWAP2 SWAP1 PUSH2 0xDFE JUMP JUMPDEST PUSH2 0x796 JUMPI PUSH1 0x40 MLOAD PUSH3 0x461BCD PUSH1 0xE5 SHL DUP2 MSTORE PUSH1 0x20 PUSH1 0x4 DUP3 ADD MSTORE PUSH1 0xC PUSH1 0x24 DUP3 ADD MSTORE PUSH12 0x1B9BDD08185C1C1C9BDD9959 PUSH1 0xA2 SHL PUSH1 0x44 DUP3 ADD MSTORE PUSH1 0x64 ADD PUSH2 0x269 JUMP JUMPDEST PUSH0 DUP3 DUP2 MSTORE PUSH1 0x20 DUP2 SWAP1 MSTORE PUSH1 0x40 SWAP1 KECCAK256 PUSH1 0x2 ADD SLOAD PUSH1 0xFF AND ISZERO PUSH2 0x7E8 JUMPI PUSH1 0x40 MLOAD PUSH3 0x461BCD PUSH1 0xE5 SHL DUP2 MSTORE PUSH1 0x20 PUSH1 0x4 DUP3 ADD MSTORE PUSH1 0xE PUSH1 0x24 DUP3 ADD MSTORE PUSH14 0x185B1C9958591E481B1A5CDD1959 PUSH1 0x92 SHL PUSH1 0x44 DUP3 ADD MSTORE PUSH1 0x64 ADD PUSH2 0x269 JUMP JUMPDEST PUSH1 0x40 DUP1 MLOAD PUSH1 0x60 DUP2 ADD DUP3 MSTORE CALLER DUP1 DUP3 MSTORE PUSH1 0x20 DUP1 DUP4 ADD DUP6 DUP2 MSTORE PUSH1 0x1 DUP5 DUP7 ADD DUP2 DUP2 MSTORE PUSH0 DUP10 DUP2 MSTORE DUP1 DUP6 MSTORE DUP8 DUP2 KECCAK256 SWAP7 MLOAD DUP8 SLOAD PUSH1 0x1 PUSH1 0x1 PUSH1 0xA0 SHL SUB NOT AND PUSH1 0x1 PUSH1 0x1 PUSH1 0xA0 SHL SUB SWAP1 SWAP2 AND OR DUP8 SSTORE SWAP3 MLOAD DUP7 DUP4 ADD SSTORE MLOAD PUSH1 0x2 SWAP6 DUP7 ADD DUP1 SLOAD PUSH1 0xFF NOT AND SWAP2 ISZERO ISZERO SWAP2 SWAP1 SWAP2 OR SWAP1 SSTORE DUP1 SLOAD DUP1 DUP3 ADD DUP3 SSTORE PUSH32 0xB10E2D527612073B26EECDFD717E6A320CF44B4AFAC2B0732D9FCBE2B7FA0CF6 ADD DUP9 SWAP1 SSTORE SLOAD SWAP4 DUP3 MSTORE DUP5 SWAP1 KECCAK256 SWAP3 SWAP1 SWAP3 SSTORE SWAP2 MLOAD DUP4 DUP2 MSTORE DUP5 SWAP2 PUSH32 0x50955776C5778C3B7D968D86D8C51FB6B29A7A74C20866B533268E209FC08343 SWAP2 ADD PUSH1 0x40 MLOAD DUP1 SWAP2 SUB SWAP1 LOG3 POP POP JUMP JUMPDEST PUSH1 0x1 SLOAD PUSH1 0x60 SWAP1 DUP2 SWAP1 DUP1 DUP6 LT PUSH2 0x916 JUMPI PUSH1 0x40 DUP1 MLOAD PUSH0 DUP1 DUP3 MSTORE PUSH1 0x20 DUP3 ADD DUP2 DUP2 MSTORE DUP3 DUP5 ADD SWAP1 SWAP4 MSTORE SWAP1 SWAP2 SWAP1 PUSH2 0x90B JUMP JUMPDEST PUSH1 0x40 DUP1 MLOAD PUSH1 0x60 DUP2 ADD DUP3 MSTORE PUSH0 DUP1 DUP3 MSTORE PUSH1 0x20 DUP1 DUP4 ADD DUP3 SWAP1 MSTORE SWAP3 DUP3 ADD MSTORE DUP3 MSTORE PUSH0 NOT SWAP1 SWAP3 ADD SWAP2 ADD DUP2 PUSH2 0x8E0 JUMPI SWAP1 POP JUMPDEST POP SWAP3 POP SWAP3 POP POP PUSH2 0xAA1 JUMP JUMPDEST PUSH0 PUSH2 0x921 DUP6 DUP8 PUSH2 0xE45 JUMP JUMPDEST SWAP1 POP DUP2 DUP2 GT ISZERO PUSH2 0x92E JUMPI POP DUP1 JUMPDEST PUSH0 PUSH2 0x939 DUP8 DUP4 PUSH2 0xE58 JUMP JUMPDEST SWAP1 POP DUP1 PUSH8 0xFFFFFFFFFFFFFFFF DUP2 GT ISZERO PUSH2 0x954 JUMPI PUSH2 0x954 PUSH2 0xE1D JUMP JUMPDEST PUSH1 0x40 MLOAD SWAP1 DUP1 DUP3 MSTORE DUP1 PUSH1 0x20 MUL PUSH1 0x20 ADD DUP3 ADD PUSH1 0x40 MSTORE DUP1 ISZERO PUSH2 0x97D JUMPI DUP2 PUSH1 0x20 ADD PUSH1 0x20 DUP3 MUL DUP1 CALLDATASIZE DUP4 CALLDATACOPY ADD SWAP1 POP JUMPDEST POP SWAP5 POP DUP1 PUSH8 0xFFFFFFFFFFFFFFFF DUP2 GT ISZERO PUSH2 0x999 JUMPI PUSH2 0x999 PUSH2 0xE1D JUMP JUMPDEST PUSH1 0x40 MLOAD SWAP1 DUP1 DUP3 MSTORE DUP1 PUSH1 0x20 MUL PUSH1 0x20 ADD DUP3 ADD PUSH1 0x40 MSTORE DUP1 ISZERO PUSH2 0x9E2 JUMPI DUP2 PUSH1 0x20 ADD JUMPDEST PUSH1 0x40 DUP1 MLOAD PUSH1 0x60 DUP2 ADD DUP3 MSTORE PUSH0 DUP1 DUP3 MSTORE PUSH1 0x20 DUP1 DUP4 ADD DUP3 SWAP1 MSTORE SWAP3 DUP3 ADD MSTORE DUP3 MSTORE PUSH0 NOT SWAP1 SWAP3 ADD SWAP2 ADD DUP2 PUSH2 0x9B7 JUMPI SWAP1 POP JUMPDEST POP SWAP4 POP PUSH0 JUMPDEST DUP2 DUP2 LT ISZERO PUSH2 0xA9C JUMPI PUSH0 PUSH1 0x1 PUSH2 0x9FC DUP4 DUP12 PUSH2 0xE45 JUMP JUMPDEST DUP2 SLOAD DUP2 LT PUSH2 0xA0C JUMPI PUSH2 0xA0C PUSH2 0xE6B JUMP JUMPDEST SWAP1 PUSH0 MSTORE PUSH1 0x20 PUSH0 KECCAK256 ADD SLOAD SWAP1 POP DUP1 DUP8 DUP4 DUP2 MLOAD DUP2 LT PUSH2 0xA2A JUMPI PUSH2 0xA2A PUSH2 0xE6B JUMP JUMPDEST PUSH1 0x20 SWAP1 DUP2 MUL SWAP2 SWAP1 SWAP2 ADD DUP2 ADD SWAP2 SWAP1 SWAP2 MSTORE PUSH0 DUP3 DUP2 MSTORE DUP1 DUP3 MSTORE PUSH1 0x40 SWAP1 DUP2 SWAP1 KECCAK256 DUP2 MLOAD PUSH1 0x60 DUP2 ADD DUP4 MSTORE DUP2 SLOAD PUSH1 0x1 PUSH1 0x1 PUSH1 0xA0 SHL SUB AND DUP2 MSTORE PUSH1 0x1 DUP3 ADD SLOAD SWAP4 DUP2 ADD SWAP4 SWAP1 SWAP4 MSTORE PUSH1 0x2 ADD SLOAD PUSH1 0xFF AND ISZERO ISZERO SWAP1 DUP3 ADD MSTORE DUP7 MLOAD DUP8 SWAP1 DUP5 SWAP1 DUP2 LT PUSH2 0xA88 JUMPI PUSH2 0xA88 PUSH2 0xE6B JUMP JUMPDEST PUSH1 0x20 SWAP1 DUP2 MUL SWAP2 SWAP1 SWAP2 ADD ADD MSTORE POP PUSH1 0x1 ADD PUSH2 0x9E7 JUMP JUMPDEST POP POP POP POP JUMPDEST SWAP3 POP SWAP3 SWAP1 POP JUMP JUMPDEST PUSH2 0xAB0 PUSH2 0xBC3 JUMP JUMPDEST PUSH1 0x2 PUSH32 0x9B779B17422D0DF92223018B32B4D1FA46E071723D6817E2486D003BECC55F00 SSTORE JUMP JUMPDEST PUSH0 DUP2 DUP2 MSTORE PUSH1 0x2 PUSH1 0x20 MSTORE PUSH1 0x40 DUP2 KECCAK256 SLOAD SWAP1 DUP2 SWAP1 SUB PUSH2 0xB04 JUMPI PUSH1 0x40 MLOAD PUSH3 0x461BCD PUSH1 0xE5 SHL DUP2 MSTORE PUSH1 0x4 ADD PUSH2 0x269 SWAP1 PUSH2 0xDB8 JUMP JUMPDEST PUSH0 PUSH2 0xB10 PUSH1 0x1 DUP4 PUSH2 0xE58 JUMP JUMPDEST PUSH1 0x1 DUP1 SLOAD SWAP2 SWAP3 POP PUSH0 SWAP2 PUSH2 0xB23 SWAP2 SWAP1 PUSH2 0xE58 JUMP JUMPDEST SWAP1 POP DUP1 DUP3 EQ PUSH2 0xB85 JUMPI PUSH0 PUSH1 0x1 DUP3 DUP2 SLOAD DUP2 LT PUSH2 0xB40 JUMPI PUSH2 0xB40 PUSH2 0xE6B JUMP JUMPDEST SWAP1 PUSH0 MSTORE PUSH1 0x20 PUSH0 KECCAK256 ADD SLOAD SWAP1 POP DUP1 PUSH1 0x1 DUP5 DUP2 SLOAD DUP2 LT PUSH2 0xB5F JUMPI PUSH2 0xB5F PUSH2 0xE6B JUMP JUMPDEST PUSH0 SWAP2 DUP3 MSTORE PUSH1 0x20 SWAP1 SWAP2 KECCAK256 ADD SSTORE PUSH2 0xB75 DUP4 PUSH1 0x1 PUSH2 0xE45 JUMP JUMPDEST PUSH0 SWAP2 DUP3 MSTORE PUSH1 0x2 PUSH1 0x20 MSTORE PUSH1 0x40 SWAP1 SWAP2 KECCAK256 SSTORE JUMPDEST PUSH1 0x1 DUP1 SLOAD DUP1 PUSH2 0xB96 JUMPI PUSH2 0xB96 PUSH2 0xE7F JUMP JUMPDEST PUSH1 0x1 SWAP1 SUB DUP2 DUP2 SWAP1 PUSH0 MSTORE PUSH1 0x20 PUSH0 KECCAK256 ADD PUSH0 SWAP1 SSTORE SWAP1 SSTORE PUSH1 0x2 PUSH0 DUP6 DUP2 MSTORE PUSH1 0x20 ADD SWAP1 DUP2 MSTORE PUSH1 0x20 ADD PUSH0 KECCAK256 PUSH0 SWAP1 SSTORE POP POP POP POP JUMP JUMPDEST PUSH32 0x9B779B17422D0DF92223018B32B4D1FA46E071723D6817E2486D003BECC55F00 SLOAD PUSH1 0x2 SUB PUSH2 0xC05 JUMPI PUSH1 0x40 MLOAD PUSH4 0x3EE5AEB5 PUSH1 0xE0 SHL DUP2 MSTORE PUSH1 0x4 ADD PUSH1 0x40 MLOAD DUP1 SWAP2 SUB SWAP1 REVERT JUMPDEST JUMP JUMPDEST PUSH0 PUSH1 0x20 DUP3 DUP5 SUB SLT ISZERO PUSH2 0xC17 JUMPI PUSH0 DUP1 REVERT JUMPDEST POP CALLDATALOAD SWAP2 SWAP1 POP JUMP JUMPDEST DUP2 MLOAD PUSH1 0x1 PUSH1 0x1 PUSH1 0xA0 SHL SUB AND DUP2 MSTORE PUSH1 0x20 DUP1 DUP4 ADD MLOAD SWAP1 DUP3 ADD MSTORE PUSH1 0x40 DUP1 DUP4 ADD MLOAD ISZERO ISZERO SWAP1 DUP3 ADD MSTORE PUSH1 0x60 DUP2 ADD JUMPDEST SWAP3 SWAP2 POP POP JUMP JUMPDEST PUSH1 0x1 PUSH1 0x1 PUSH1 0xA0 SHL SUB DUP2 AND DUP2 EQ PUSH2 0x469 JUMPI PUSH0 DUP1 REVERT JUMPDEST PUSH0 DUP1 PUSH0 DUP1 PUSH0 PUSH1 0x80 DUP7 DUP9 SUB SLT ISZERO PUSH2 0xC74 JUMPI PUSH0 DUP1 REVERT JUMPDEST DUP6 CALLDATALOAD PUSH2 0xC7F DUP2 PUSH2 0xC4C JUMP JUMPDEST SWAP5 POP PUSH1 0x20 DUP7 ADD CALLDATALOAD PUSH2 0xC8F DUP2 PUSH2 0xC4C JUMP JUMPDEST SWAP4 POP PUSH1 0x40 DUP7 ADD CALLDATALOAD SWAP3 POP PUSH1 0x60 DUP7 ADD CALLDATALOAD PUSH8 0xFFFFFFFFFFFFFFFF DUP1 DUP3 GT ISZERO PUSH2 0xCB2 JUMPI PUSH0 DUP1 REVERT JUMPDEST DUP2 DUP9 ADD SWAP2 POP DUP9 PUSH1 0x1F DUP4 ADD SLT PUSH2 0xCC5 JUMPI PUSH0 DUP1 REVERT JUMPDEST DUP2 CALLDATALOAD DUP2 DUP2 GT ISZERO PUSH2 0xCD3 JUMPI PUSH0 DUP1 REVERT JUMPDEST DUP10 PUSH1 0x20 DUP3 DUP6 ADD ADD GT ISZERO PUSH2 0xCE4 JUMPI PUSH0 DUP1 REVERT JUMPDEST SWAP7 SWAP10 SWAP6 SWAP9 POP SWAP4 SWAP7 POP PUSH1 0x20 ADD SWAP5 SWAP4 SWAP3 POP POP POP JUMP JUMPDEST PUSH0 DUP1 PUSH1 0x40 DUP4 DUP6 SUB SLT ISZERO PUSH2 0xD08 JUMPI PUSH0 DUP1 REVERT JUMPDEST POP POP DUP1 CALLDATALOAD SWAP3 PUSH1 0x20 SWAP1 SWAP2 ADD CALLDATALOAD SWAP2 POP JUMP JUMPDEST PUSH1 0x40 DUP1 DUP3 MSTORE DUP4 MLOAD SWAP1 DUP3 ADD DUP2 SWAP1 MSTORE PUSH0 SWAP1 PUSH1 0x60 SWAP1 DUP2 DUP5 ADD SWAP1 PUSH1 0x20 DUP1 DUP9 ADD DUP6 JUMPDEST DUP4 DUP2 LT ISZERO PUSH2 0xD50 JUMPI DUP2 MLOAD DUP6 MSTORE SWAP4 DUP3 ADD SWAP4 SWAP1 DUP3 ADD SWAP1 PUSH1 0x1 ADD PUSH2 0xD34 JUMP JUMPDEST POP POP DUP6 DUP4 SUB DUP2 DUP8 ADD MSTORE DUP7 MLOAD DUP1 DUP5 MSTORE DUP8 DUP3 ADD SWAP4 DUP3 ADD SWAP3 POP PUSH0 JUMPDEST DUP2 DUP2 LT ISZERO PUSH2 0xDAA JUMPI PUSH2 0xD9A DUP5 DUP7 MLOAD DUP1 MLOAD PUSH1 0x1 PUSH1 0x1 PUSH1 0xA0 SHL SUB AND DUP3 MSTORE PUSH1 0x20 DUP1 DUP3 ADD MLOAD SWAP1 DUP4 ADD MSTORE PUSH1 0x40 SWAP1 DUP2 ADD MLOAD ISZERO ISZERO SWAP2 ADD MSTORE JUMP JUMPDEST SWAP4 DUP3 ADD SWAP4 SWAP3 DUP6 ADD SWAP3 PUSH1 0x1 ADD PUSH2 0xD68 JUMP JUMPDEST POP SWAP2 SWAP9 SWAP8 POP POP POP POP POP POP POP POP JUMP JUMPDEST PUSH1 0x20 DUP1 DUP3 MSTORE PUSH1 0xA SWAP1 DUP3 ADD MSTORE PUSH10 0x6E6F7420616374697665 PUSH1 0xB0 SHL PUSH1 0x40 DUP3 ADD MSTORE PUSH1 0x60 ADD SWAP1 JUMP JUMPDEST PUSH0 PUSH1 0x20 DUP3 DUP5 SUB SLT ISZERO PUSH2 0xDEC JUMPI PUSH0 DUP1 REVERT JUMPDEST DUP2 MLOAD PUSH2 0xDF7 DUP2 PUSH2 0xC4C JUMP JUMPDEST SWAP4 SWAP3 POP POP POP JUMP JUMPDEST PUSH0 PUSH1 0x20 DUP3 DUP5 SUB SLT ISZERO PUSH2 0xE0E JUMPI PUSH0 DUP1 REVERT JUMPDEST DUP2 MLOAD DUP1 ISZERO ISZERO DUP2 EQ PUSH2 0xDF7 JUMPI PUSH0 DUP1 REVERT JUMPDEST PUSH4 0x4E487B71 PUSH1 0xE0 SHL PUSH0 MSTORE PUSH1 0x41 PUSH1 0x4 MSTORE PUSH1 0x24 PUSH0 REVERT JUMPDEST PUSH4 0x4E487B71 PUSH1 0xE0 SHL PUSH0 MSTORE PUSH1 0x11 PUSH1 0x4 MSTORE PUSH1 0x24 PUSH0 REVERT JUMPDEST DUP1 DUP3 ADD DUP1 DUP3 GT ISZERO PUSH2 0xC46 JUMPI PUSH2 0xC46 PUSH2 0xE31 JUMP JUMPDEST DUP2 DUP2 SUB DUP2 DUP2 GT ISZERO PUSH2 0xC46 JUMPI PUSH2 0xC46 PUSH2 0xE31 JUMP JUMPDEST PUSH4 0x4E487B71 PUSH1 0xE0 SHL PUSH0 MSTORE PUSH1 0x32 PUSH1 0x4 MSTORE PUSH1 0x24 PUSH0 REVERT JUMPDEST PUSH4 0x4E487B71 PUSH1 0xE0 SHL PUSH0 MSTORE PUSH1 0x31 PUSH1 0x4 MSTORE PUSH1 0x24 PUSH0 REVERT INVALID LOG2 PUSH5 0x6970667358 0x22 SLT KECCAK256 SWAP9 TSTORE SELFDESTRUCT PUSH22 0x35DD12F47979EB0BBEDD9241E4D6B744E81408BF6741 CALLDATALOAD PUSH14 0xADE4D1FE64736F6C634300081800 CALLER "},"methodIdentifiers":{"buyToken(uint256)":"2d296bf1","cancelListing(uint256)":"305a67a8","getActiveCount()":"63338b17","getActiveListings(uint256,uint256)":"c128b231","getListing(uint256)":"107a274a","listToken(uint256,uint256)":"75c1631d","nft()":"47ccca02","onERC721Received(address,address,uint256,bytes)":"150b7a02"}}}}}