{
  "_format": "hh-sol-artifact-1",
  "contractName": "SonicVoiceMarketplace",
  "sourceName": "contracts/SonicVoiceMarketplace.sol",
  "abi": [
    {
      "inputs": [
        {
          "internalType": "address",
          "name": "nftAddress",
          "type": "address"
        }
      ],
      "stateMutability": "nonpayable",
      "type": "constructor"
    },
    {
      "inputs": [],
      "name": "ReentrancyGuardReentrantCall",
      "type": "error"
    },
    {
      "anonymous": false,
      "inputs": [
        {
          "indexed": true,
          "internalType": "uint256",
          "name": "tokenId",
          "type": "uint256"
        },
        {
          "indexed": true,
          "internalType": "address",
          "name": "seller",
          "type": "address"
        }
      ],
      "name": "Cancelled",
      "type": "event"
    },
    {
      "anonymous": false,
      "inputs": [
        {
          "indexed": true,
          "internalType": "uint256",
          "name": "tokenId",
          "type": "uint256"
        },
        {
          "indexed": true,
          "internalType": "address",
          "name": "seller",
          "type": "address"
        },
        {
          "indexed": false,
          "internalType": "uint256",
          "name": "price",
          "type": "uint256"
        }
      ],
      "name": "Listed",
      "type": "event"
    },
    {
      "anonymous": false,
      "inputs": [
        {
          "indexed": true,
          "internalType": "uint256",
          "name": "tokenId",
          "type": "uint256"
        },
        {
          "indexed": true,
          "internalType": "address",
          "name": "seller",
          "type": "address"
        },
        {
          "indexed": true,
          "internalType": "address",
          "name": "buyer",
          "type": "address"
        },
        {
          "indexed": false,
          "internalType": "uint256",
          "name": "price",
          "type": "uint256"
        }
      ],
      "name": "Sold",
      "type": "event"
    },
    {
      "inputs": [
        {
          "internalType": "uint256",
          "name": "tokenId",
          "type": "uint256"
        }
      ],
      "name": "buyToken",
      "outputs": [],
      "stateMutability": "payable",
      "type": "function"
    },
    {
      "inputs": [
        {
          "internalType": "uint256",
          "name": "tokenId",
          "type": "uint256"
        }
      ],
      "name": "cancelListing",
      "outputs": [],
      "stateMutability": "nonpayable",
      "type": "function"
    },
    {
      "inputs": [],
      "name": "getActiveCount",
      "outputs": [
        {
          "internalType": "uint256",
          "name": "",
          "type": "uint256"
        }
      ],
      "stateMutability": "view",
      "type": "function"
    },
    {
      "inputs": [
        {
          "internalType": "uint256",
          "name": "offset",
          "type": "uint256"
        },
        {
          "internalType": "uint256",
          "name": "limit",
          "type": "uint256"
        }
      ],
      "name": "getActiveListings",
      "outputs": [
        {
          "internalType": "uint256[]",
          "name": "tokenIds",
          "type": "uint256[]"
        },
        {
          "components": [
            {
              "internalType": "address",
              "name": "seller",
              "type": "address"
            },
            {
              "internalType": "uint256",
              "name": "price",
              "type": "uint256"
            },
            {
              "internalType": "bool",
              "name": "active",
              "type": "bool"
            }
          ],
          "internalType": "struct SonicVoiceMarketplace.Listing[]",
          "name": "data",
          "type": "tuple[]"
        }
      ],
      "stateMutability": "view",
      "type": "function"
    },
    {
      "inputs": [
        {
          "internalType": "uint256",
          "name": "tokenId",
          "type": "uint256"
        }
      ],
      "name": "getListing",
      "outputs": [
        {
          "components": [
            {
              "internalType": "address",
              "name": "seller",
              "type": "address"
            },
            {
              "internalType": "uint256",
              "name": "price",
              "type": "uint256"
            },
            {
              "internalType": "bool",
              "name": "active",
              "type": "bool"
            }
          ],
          "internalType": "struct SonicVoiceMarketplace.Listing",
          "name": "",
          "type": "tuple"
        }
      ],
      "stateMutability": "view",
      "type": "function"
    },
    {
      "inputs": [
        {
          "internalType": "uint256",
          "name": "tokenId",
          "type": "uint256"
        },
        {
          "internalType": "uint256",
          "name": "price",
          "type": "uint256"
        }
      ],
      "name": "listToken",
      "outputs": [],
      "stateMutability": "nonpayable",
      "type": "function"
    },
    {
      "inputs": [],
      "name": "nft",
      "outputs": [
        {
          "internalType": "contract IERC721",
          "name": "",
          "type": "address"
        }
      ],
      "stateMutability": "view",
      "type": "function"
    },
    {
      "inputs": [
        {
          "internalType": "address",
          "name": "",
          "type": "address"
        },
        {
          "internalType": "address",
          "name": "",
          "type": "address"
        },
        {
          "internalType": "uint256",
          "name": "",
          "type": "uint256"
        },
        {
          "internalType": "bytes",
          "name": "",
          "type": "bytes"
        }
      ],
      "name": "onERC721Received",
      "outputs": [
        {
          "internalType": "bytes4",
          "name": "",
          "type": "bytes4"
        }
      ],
      "stateMutability": "pure",
      "type": "function"
    }
  ],
  "bytecode": "0x60a060405234801561000f575f80fd5b50604051610f8d380380610f8d83398101604081905261002e91610063565b60017f9b779b17422d0df92223018b32b4d1fa46e071723d6817e2486d003becc55f00556001600160a01b0316608052610090565b5f60208284031215610073575f80fd5b81516001600160a01b0381168114610089575f80fd5b9392505050565b608051610ec96100c45f395f818161018d015281816103070152818161058b0152818161065601526106ea0152610ec95ff3fe608060405260043610610079575f3560e01c806347ccca021161004c57806347ccca021461017c57806363338b17146101c757806375c1631d146101e4578063c128b23114610203575f80fd5b8063107a274a1461007d578063150b7a02146101045780632d296bf114610148578063305a67a81461015d575b5f80fd5b348015610088575f80fd5b506100ee610097366004610c07565b60408051606080820183525f8083526020808401829052928401819052938452838252928290208251938401835280546001600160a01b031684526001810154918401919091526002015460ff1615159082015290565b6040516100fb9190610c1e565b60405180910390f35b34801561010f575f80fd5b5061012f61011e366004610c60565b630a85bd0160e11b95945050505050565b6040516001600160e01b031990911681526020016100fb565b61015b610156366004610c07565b610230565b005b348015610168575f80fd5b5061015b610177366004610c07565b61046c565b348015610187575f80fd5b506101af7f000000000000000000000000000000000000000000000000000000000000000081565b6040516001600160a01b0390911681526020016100fb565b3480156101d2575f80fd5b506001546040519081526020016100fb565b3480156101ef575f80fd5b5061015b6101fe366004610cf7565b610528565b34801561020e575f80fd5b5061022261021d366004610cf7565b6108b4565b6040516100fb929190610d17565b610238610aa8565b5f818152602081905260409020600281015460ff166102725760405162461bcd60e51b815260040161026990610db8565b60405180910390fd5b806001015434146102b35760405162461bcd60e51b815260206004820152600b60248201526a77726f6e672076616c756560a81b6044820152606401610269565b8054600182015460028301805460ff191690556001600160a01b03909116906102db84610ad6565b604051632142170760e11b81526001600160a01b038381166004830152336024830152604482018690527f000000000000000000000000000000000000000000000000000000000000000016906342842e0e906064015f604051808303815f87803b158015610348575f80fd5b505af115801561035a573d5f803e3d5ffd5b505050505f826001600160a01b0316826040515f6040518083038185875af1925050503d805f81146103a7576040519150601f19603f3d011682016040523d82523d5f602084013e6103ac565b606091505b50509050806103ee5760405162461bcd60e51b815260206004820152600e60248201526d1c185e5b595b9d0819985a5b195960921b6044820152606401610269565b336001600160a01b0316836001600160a01b0316867f23f50d55776d8003622a982ade45a6c7f083116c8dbbcd980f59942f440badb18560405161043491815260200190565b60405180910390a45050505061046960017f9b779b17422d0df92223018b32b4d1fa46e071723d6817e2486d003becc55f0055565b50565b5f818152602081905260409020600281015460ff1661049d5760405162461bcd60e51b815260040161026990610db8565b80546001600160a01b031633146104e35760405162461bcd60e51b815260206004820152600a6024820152693737ba1039b2b63632b960b11b6044820152606401610269565b60028101805460ff191690556104f882610ad6565b604051339083907f26deca31ff8139a06c52453ce8985d34f7648a6d9af1d283c4063d052c355a0f905f90a35050565b5f811161056b5760405162461bcd60e51b815260206004820152601160248201527007072696365206d757374206265203e203607c1b6044820152606401610269565b6040516331a9108f60e11b81526004810183905233906001600160a01b037f00000000000000000000000000000000000000000000000000000000000000001690636352211e90602401602060405180830381865afa1580156105d0573d5f803e3d5ffd5b505050506040513d601f19601f820116820180604052508101906105f49190610ddc565b6001600160a01b0316146106365760405162461bcd60e51b81526020600482015260096024820152683737ba1037bbb732b960b91b6044820152606401610269565b60405163020604bf60e21b81526004810183905230906001600160a01b037f0000000000000000000000000000000000000000000000000000000000000000169063081812fc90602401602060405180830381865afa15801561069b573d5f803e3d5ffd5b505050506040513d601f19601f820116820180604052508101906106bf9190610ddc565b6001600160a01b0316148061075b575060405163e985e9c560e01b81523360048201523060248201527f00000000000000000000000000000000000000000000000000000000000000006001600160a01b03169063e985e9c590604401602060405180830381865afa158015610737573d5f803e3d5ffd5b505050506040513d601f19601f8201168201806040525081019061075b9190610dfe565b6107965760405162461bcd60e51b815260206004820152600c60248201526b1b9bdd08185c1c1c9bdd995960a21b6044820152606401610269565b5f8281526020819052604090206002015460ff16156107e85760405162461bcd60e51b815260206004820152600e60248201526d185b1c9958591e481b1a5cdd195960921b6044820152606401610269565b6040805160608101825233808252602080830185815260018486018181525f898152808552878120965187546001600160a01b0319166001600160a01b03909116178755925186830155516002958601805460ff1916911515919091179055805480820182557fb10e2d527612073b26eecdfd717e6a320cf44b4afac2b0732d9fcbe2b7fa0cf6018890555493825284902092909255915183815284917f50955776c5778c3b7d968d86d8c51fb6b29a7a74c20866b533268e209fc08343910160405180910390a35050565b600154606090819080851061091657604080515f8082526020820181815282840190935290919061090b565b604080516060810182525f80825260208083018290529282015282525f199092019101816108e05790505b509250925050610aa1565b5f6109218587610e45565b90508181111561092e5750805b5f6109398783610e58565b90508067ffffffffffffffff81111561095457610954610e1d565b60405190808252806020026020018201604052801561097d578160200160208202803683370190505b5094508067ffffffffffffffff81111561099957610999610e1d565b6040519080825280602002602001820160405280156109e257816020015b604080516060810182525f80825260208083018290529282015282525f199092019101816109b75790505b5093505f5b81811015610a9c575f60016109fc838b610e45565b81548110610a0c57610a0c610e6b565b905f5260205f200154905080878381518110610a2a57610a2a610e6b565b6020908102919091018101919091525f828152808252604090819020815160608101835281546001600160a01b031681526001820154938101939093526002015460ff161515908201528651879084908110610a8857610a88610e6b565b6020908102919091010152506001016109e7565b505050505b9250929050565b610ab0610bc3565b60027f9b779b17422d0df92223018b32b4d1fa46e071723d6817e2486d003becc55f0055565b5f8181526002602052604081205490819003610b045760405162461bcd60e51b815260040161026990610db8565b5f610b10600183610e58565b600180549192505f91610b239190610e58565b9050808214610b85575f60018281548110610b4057610b40610e6b565b905f5260205f20015490508060018481548110610b5f57610b5f610e6b565b5f91825260209091200155610b75836001610e45565b5f91825260026020526040909120555b6001805480610b9657610b96610e7f565b600190038181905f5260205f20015f9055905560025f8581526020019081526020015f205f905550505050565b7f9b779b17422d0df92223018b32b4d1fa46e071723d6817e2486d003becc55f0054600203610c0557604051633ee5aeb560e01b815260040160405180910390fd5b565b5f60208284031215610c17575f80fd5b5035919050565b81516001600160a01b0316815260208083015190820152604080830151151590820152606081015b92915050565b6001600160a01b0381168114610469575f80fd5b5f805f805f60808688031215610c74575f80fd5b8535610c7f81610c4c565b94506020860135610c8f81610c4c565b935060408601359250606086013567ffffffffffffffff80821115610cb2575f80fd5b818801915088601f830112610cc5575f80fd5b813581811115610cd3575f80fd5b896020828501011115610ce4575f80fd5b9699959850939650602001949392505050565b5f8060408385031215610d08575f80fd5b50508035926020909101359150565b604080825283519082018190525f90606090818401906020808801855b83811015610d5057815185529382019390820190600101610d34565b505085830381870152865180845287820193820192505f5b81811015610daa57610d9a84865180516001600160a01b03168252602080820151908301526040908101511515910152565b9382019392850192600101610d68565b509198975050505050505050565b6020808252600a90820152696e6f742061637469766560b01b604082015260600190565b5f60208284031215610dec575f80fd5b8151610df781610c4c565b9392505050565b5f60208284031215610e0e575f80fd5b81518015158114610df7575f80fd5b634e487b7160e01b5f52604160045260245ffd5b634e487b7160e01b5f52601160045260245ffd5b80820180821115610c4657610c46610e31565b81810381811115610c4657610c46610e31565b634e487b7160e01b5f52603260045260245ffd5b634e487b7160e01b5f52603160045260245ffdfea2646970667358221220985dff7535dd12f47979eb0bbedd9241e4d6b744e81408bf6741356dade4d1fe64736f6c63430008180033",
  "linkReferences": {},
  "deployedLinkReferences": {}
}