{
  "_format": "hh-sol-artifact-1",
  "contractName": "SonicIPToken",
  "sourceName": "contracts/SonicIPToken.sol",
  "abi": [
    {
      "inputs": [],
      "stateMutability": "nonpayable",
      "type": "constructor"
    },
    {
      "inputs": [
        {
          "internalType": "address",
          "name": "sender",
          "type": "address"
        },
        {
          "internalType": "uint256",
          "name": "tokenId",
          "type": "uint256"
        },
        {
          "internalType": "address",
          "name": "owner",
          "type": "address"
        }
      ],
      "name": "ERC721IncorrectOwner",
      "type": "error"
    },
    {
      "inputs": [
        {
          "internalType": "address",
          "name": "operator",
          "type": "address"
        },
        {
          "internalType": "uint256",
          "name": "tokenId",
          "type": "uint256"
        }
      ],
      "name": "ERC721InsufficientApproval",
      "type": "error"
    },
    {
      "inputs": [
        {
          "internalType": "address",
          "name": "approver",
          "type": "address"
        }
      ],
      "name": "ERC721InvalidApprover",
      "type": "error"
    },
    {
      "inputs": [
        {
          "internalType": "address",
          "name": "operator",
          "type": "address"
        }
      ],
      "name": "ERC721InvalidOperator",
      "type": "error"
    },
    {
      "inputs": [
        {
          "internalType": "address",
          "name": "owner",
          "type": "address"
        }
      ],
      "name": "ERC721InvalidOwner",
      "type": "error"
    },
    {
      "inputs": [
        {
          "internalType": "address",
          "name": "receiver",
          "type": "address"
        }
      ],
      "name": "ERC721InvalidReceiver",
      "type": "error"
    },
    {
      "inputs": [
        {
          "internalType": "address",
          "name": "sender",
          "type": "address"
        }
      ],
      "name": "ERC721InvalidSender",
      "type": "error"
    },
    {
      "inputs": [
        {
          "internalType": "uint256",
          "name": "tokenId",
          "type": "uint256"
        }
      ],
      "name": "ERC721NonexistentToken",
      "type": "error"
    },
    {
      "inputs": [
        {
          "internalType": "address",
          "name": "owner",
          "type": "address"
        }
      ],
      "name": "OwnableInvalidOwner",
      "type": "error"
    },
    {
      "inputs": [
        {
          "internalType": "address",
          "name": "account",
          "type": "address"
        }
      ],
      "name": "OwnableUnauthorizedAccount",
      "type": "error"
    },
    {
      "anonymous": false,
      "inputs": [
        {
          "indexed": true,
          "internalType": "address",
          "name": "owner",
          "type": "address"
        },
        {
          "indexed": true,
          "internalType": "address",
          "name": "approved",
          "type": "address"
        },
        {
          "indexed": true,
          "internalType": "uint256",
          "name": "tokenId",
          "type": "uint256"
        }
      ],
      "name": "Approval",
      "type": "event"
    },
    {
      "anonymous": false,
      "inputs": [
        {
          "indexed": true,
          "internalType": "address",
          "name": "owner",
          "type": "address"
        },
        {
          "indexed": true,
          "internalType": "address",
          "name": "operator",
          "type": "address"
        },
        {
          "indexed": false,
          "internalType": "bool",
          "name": "approved",
          "type": "bool"
        }
      ],
      "name": "ApprovalForAll",
      "type": "event"
    },
    {
      "anonymous": false,
      "inputs": [
        {
          "indexed": true,
          "internalType": "uint256",
          "name": "tokenId",
          "type": "uint256"
        },
        {
          "indexed": true,
          "internalType": "address",
          "name": "creator",
          "type": "address"
        },
        {
          "indexed": false,
          "internalType": "string",
          "name": "metadataURI",
          "type": "string"
        }
      ],
      "name": "AudioTokenized",
      "type": "event"
    },
    {
      "anonymous": false,
      "inputs": [
        {
          "indexed": false,
          "internalType": "uint256",
          "name": "_fromTokenId",
          "type": "uint256"
        },
        {
          "indexed": false,
          "internalType": "uint256",
          "name": "_toTokenId",
          "type": "uint256"
        }
      ],
      "name": "BatchMetadataUpdate",
      "type": "event"
    },
    {
      "anonymous": false,
      "inputs": [
        {
          "indexed": false,
          "internalType": "uint256",
          "name": "_tokenId",
          "type": "uint256"
        }
      ],
      "name": "MetadataUpdate",
      "type": "event"
    },
    {
      "anonymous": false,
      "inputs": [
        {
          "indexed": true,
          "internalType": "address",
          "name": "previousOwner",
          "type": "address"
        },
        {
          "indexed": true,
          "internalType": "address",
          "name": "newOwner",
          "type": "address"
        }
      ],
      "name": "OwnershipTransferred",
      "type": "event"
    },
    {
      "anonymous": false,
      "inputs": [
        {
          "indexed": true,
          "internalType": "address",
          "name": "from",
          "type": "address"
        },
        {
          "indexed": true,
          "internalType": "address",
          "name": "to",
          "type": "address"
        },
        {
          "indexed": true,
          "internalType": "uint256",
          "name": "tokenId",
          "type": "uint256"
        }
      ],
      "name": "Transfer",
      "type": "event"
    },
    {
      "inputs": [
        {
          "internalType": "address",
          "name": "to",
          "type": "address"
        },
        {
          "internalType": "uint256",
          "name": "tokenId",
          "type": "uint256"
        }
      ],
      "name": "approve",
      "outputs": [],
      "stateMutability": "nonpayable",
      "type": "function"
    },
    {
      "inputs": [
        {
          "internalType": "address",
          "name": "owner",
          "type": "address"
        }
      ],
      "name": "balanceOf",
      "outputs": [
        {
          "internalType": "uint256",
          "name": "",
          "type": "uint256"
        }
      ],
      "stateMutability": "view",
      "type": "function"
    },
    {
      "inputs": [
        {
          "internalType": "uint256",
          "name": "tokenId",
          "type": "uint256"
        }
      ],
      "name": "getApproved",
      "outputs": [
        {
          "internalType": "address",
          "name": "",
          "type": "address"
        }
      ],
      "stateMutability": "view",
      "type": "function"
    },
    {
      "inputs": [
        {
          "internalType": "uint256",
          "name": "tokenId",
          "type": "uint256"
        }
      ],
      "name": "getAudioMetadata",
      "outputs": [
        {
          "internalType": "string",
          "name": "",
          "type": "string"
        }
      ],
      "stateMutability": "view",
      "type": "function"
    },
    {
      "inputs": [
        {
          "internalType": "address",
          "name": "owner",
          "type": "address"
        },
        {
          "internalType": "address",
          "name": "operator",
          "type": "address"
        }
      ],
      "name": "isApprovedForAll",
      "outputs": [
        {
          "internalType": "bool",
          "name": "",
          "type": "bool"
        }
      ],
      "stateMutability": "view",
      "type": "function"
    },
    {
      "inputs": [
        {
          "internalType": "address",
          "name": "to",
          "type": "address"
        },
        {
          "internalType": "string",
          "name": "metadataURI",
          "type": "string"
        },
        {
          "internalType": "string",
          "name": "audioHash",
          "type": "string"
        }
      ],
      "name": "mintAudioToken",
      "outputs": [
        {
          "internalType": "uint256",
          "name": "",
          "type": "uint256"
        }
      ],
      "stateMutability": "nonpayable",
      "type": "function"
    },
    {
      "inputs": [],
      "name": "name",
      "outputs": [
        {
          "internalType": "string",
          "name": "",
          "type": "string"
        }
      ],
      "stateMutability": "view",
      "type": "function"
    },
    {
      "inputs": [],
      "name": "owner",
      "outputs": [
        {
          "internalType": "address",
          "name": "",
          "type": "address"
        }
      ],
      "stateMutability": "view",
      "type": "function"
    },
    {
      "inputs": [
        {
          "internalType": "uint256",
          "name": "tokenId",
          "type": "uint256"
        }
      ],
      "name": "ownerOf",
      "outputs": [
        {
          "internalType": "address",
          "name": "",
          "type": "address"
        }
      ],
      "stateMutability": "view",
      "type": "function"
    },
    {
      "inputs": [],
      "name": "renounceOwnership",
      "outputs": [],
      "stateMutability": "nonpayable",
      "type": "function"
    },
    {
      "inputs": [
        {
          "internalType": "address",
          "name": "from",
          "type": "address"
        },
        {
          "internalType": "address",
          "name": "to",
          "type": "address"
        },
        {
          "internalType": "uint256",
          "name": "tokenId",
          "type": "uint256"
        }
      ],
      "name": "safeTransferFrom",
      "outputs": [],
      "stateMutability": "nonpayable",
      "type": "function"
    },
    {
      "inputs": [
        {
          "internalType": "address",
          "name": "from",
          "type": "address"
        },
        {
          "internalType": "address",
          "name": "to",
          "type": "address"
        },
        {
          "internalType": "uint256",
          "name": "tokenId",
          "type": "uint256"
        },
        {
          "internalType": "bytes",
          "name": "data",
          "type": "bytes"
        }
      ],
      "name": "safeTransferFrom",
      "outputs": [],
      "stateMutability": "nonpayable",
      "type": "function"
    },
    {
      "inputs": [
        {
          "internalType": "address",
          "name": "operator",
          "type": "address"
        },
        {
          "internalType": "bool",
          "name": "approved",
          "type": "bool"
        }
      ],
      "name": "setApprovalForAll",
      "outputs": [],
      "stateMutability": "nonpayable",
      "type": "function"
    },
    {
      "inputs": [
        {
          "internalType": "bytes4",
          "name": "interfaceId",
          "type": "bytes4"
        }
      ],
      "name": "supportsInterface",
      "outputs": [
        {
          "internalType": "bool",
          "name": "",
          "type": "bool"
        }
      ],
      "stateMutability": "view",
      "type": "function"
    },
    {
      "inputs": [],
      "name": "symbol",
      "outputs": [
        {
          "internalType": "string",
          "name": "",
          "type": "string"
        }
      ],
      "stateMutability": "view",
      "type": "function"
    },
    {
      "inputs": [
        {
          "internalType": "address",
          "name": "owner",
          "type": "address"
        },
        {
          "internalType": "uint256",
          "name": "index",
          "type": "uint256"
        }
      ],
      "name": "tokenOfOwnerByIndex",
      "outputs": [
        {
          "internalType": "uint256",
          "name": "",
          "type": "uint256"
        }
      ],
      "stateMutability": "view",
      "type": "function"
    },
    {
      "inputs": [
        {
          "internalType": "uint256",
          "name": "tokenId",
          "type": "uint256"
        }
      ],
      "name": "tokenURI",
      "outputs": [
        {
          "internalType": "string",
          "name": "",
          "type": "string"
        }
      ],
      "stateMutability": "view",
      "type": "function"
    },
    {
      "inputs": [
        {
          "internalType": "address",
          "name": "from",
          "type": "address"
        },
        {
          "internalType": "address",
          "name": "to",
          "type": "address"
        },
        {
          "internalType": "uint256",
          "name": "tokenId",
          "type": "uint256"
        }
      ],
      "name": "transferFrom",
      "outputs": [],
      "stateMutability": "nonpayable",
      "type": "function"
    },
    {
      "inputs": [
        {
          "internalType": "address",
          "name": "newOwner",
          "type": "address"
        }
      ],
      "name": "transferOwnership",
      "outputs": [],
      "stateMutability": "nonpayable",
      "type": "function"
    },
    {
      "inputs": [
        {
          "internalType": "address",
          "name": "owner",
          "type": "address"
        },
        {
          "internalType": "string",
          "name": "audioHash",
          "type": "string"
        }
      ],
      "name": "verifyOwnership",
      "outputs": [
        {
          "internalType": "bool",
          "name": "",
          "type": "bool"
        }
      ],
      "stateMutability": "view",
      "type": "function"
    }
  ],
  "bytecode": "0x608060405234801562000010575f80fd5b50336040518060400160405280600c81526020016b29b7b734b1a4a82a37b5b2b760a11b81525060405180604001604052806005815260200164534f4e494360d81b815250815f9081620000659190620001aa565b506001620000748282620001aa565b5050506001600160a01b038116620000a557604051631e4fbdf760e01b81525f600482015260240160405180910390fd5b620000b081620000bb565b505f60085562000276565b600780546001600160a01b038381166001600160a01b0319831681179093556040519116919082907f8be0079c531659141344cd1fd0a4f28419497f9722a3daafe3b4186f6b6457e0905f90a35050565b634e487b7160e01b5f52604160045260245ffd5b600181811c908216806200013557607f821691505b6020821081036200015457634e487b7160e01b5f52602260045260245ffd5b50919050565b601f821115620001a557805f5260205f20601f840160051c81016020851015620001815750805b601f840160051c820191505b81811015620001a2575f81556001016200018d565b50505b505050565b81516001600160401b03811115620001c657620001c66200010c565b620001de81620001d7845462000120565b846200015a565b602080601f83116001811462000214575f8415620001fc5750858301515b5f19600386901b1c1916600185901b1785556200026e565b5f85815260208120601f198616915b82811015620002445788860151825594840194600190910190840162000223565b50858210156200026257878501515f19600388901b60f8161c191681555b505060018460011b0185555b505050505050565b61180280620002845f395ff3fe608060405234801561000f575f80fd5b5060043610610127575f3560e01c806370a08231116100a9578063b88d4fde1161006e578063b88d4fde1461026f578063c87b56dd14610282578063e8e7787814610295578063e985e9c5146102a8578063f2fde38b146102bb575f80fd5b806370a0823114610228578063715018a61461023b5780638da5cb5b1461024357806395d89b4114610254578063a22cb4651461025c575f80fd5b806329560f42116100ef57806329560f42146101bb5780632f745c59146101ce57806330c697d3146101ef57806342842e0e146102025780636352211e14610215575f80fd5b806301ffc9a71461012b57806306fdde0314610153578063081812fc14610168578063095ea7b31461019357806323b872dd146101a8575b5f80fd5b61013e6101393660046111aa565b6102ce565b60405190151581526020015b60405180910390f35b61015b6102f8565b60405161014a9190611212565b61017b610176366004611224565b610387565b6040516001600160a01b03909116815260200161014a565b6101a66101a136600461124f565b6103ae565b005b6101a66101b6366004611279565b6103bd565b61015b6101c9366004611224565b61044b565b6101e16101dc36600461124f565b61054f565b60405190815260200161014a565b61013e6101fd36600461135c565b6105f6565b6101a6610210366004611279565b61066c565b61017b610223366004611224565b61068b565b6101e16102363660046113a9565b610695565b6101a66106da565b6007546001600160a01b031661017b565b61015b6106ed565b6101a661026a3660046113c4565b6106fc565b6101a661027d3660046113ff565b610707565b61015b610290366004611224565b61071f565b6101e16102a336600461147a565b6107a0565b61013e6102b63660046114eb565b61082d565b6101a66102c93660046113a9565b61085a565b5f6001600160e01b03198216632483248360e11b14806102f257506102f282610897565b92915050565b60605f805461030690611517565b80601f016020809104026020016040519081016040528092919081815260200182805461033290611517565b801561037d5780601f106103545761010080835404028352916020019161037d565b820191905f5260205f20905b81548152906001019060200180831161036057829003601f168201915b5050505050905090565b5f610391826108e6565b505f828152600460205260409020546001600160a01b03166102f2565b6103b982823361091e565b5050565b6001600160a01b0382166103eb57604051633250574960e11b81525f60048201526024015b60405180910390fd5b5f6103f783833361092b565b9050836001600160a01b0316816001600160a01b031614610445576040516364283d7b60e01b81526001600160a01b03808616600483015260248201849052821660448201526064016103e2565b50505050565b606061045682610a1d565b6104b45760405162461bcd60e51b815260206004820152602960248201527f536f6e69634950546f6b656e3a20517565727920666f72206e6f6e657869737460448201526832b73a103a37b5b2b760b91b60648201526084016103e2565b5f82815260096020526040902080546104cc90611517565b80601f01602080910402602001604051908101604052809291908181526020018280546104f890611517565b80156105435780601f1061051a57610100808354040283529160200191610543565b820191905f5260205f20905b81548152906001019060200180831161052657829003601f168201915b50505050509050919050565b5f61055983610695565b82106105775760405162461bcd60e51b81526004016103e29061154f565b5f805b6008548110156105dd5761058d81610a1d565b80156105b25750846001600160a01b03166105a78261068b565b6001600160a01b0316145b156105d5578382036105c75791506102f29050565b816105d181611596565b9250505b60010161057a565b5060405162461bcd60e51b81526004016103e29061154f565b5f8061060184610695565b90505f5b81811015610662575f610618868361054f565b9050848051906020012060095f8381526020019081526020015f2060405161064091906115ba565b60405180910390200361065957600193505050506102f2565b50600101610605565b505f949350505050565b61068683838360405180602001604052805f815250610707565b505050565b5f6102f2826108e6565b5f6001600160a01b0382166106bf576040516322718ad960e21b81525f60048201526024016103e2565b506001600160a01b03165f9081526003602052604090205490565b6106e2610a8b565b6106eb5f610ab8565b565b60606001805461030690611517565b6103b9338383610b09565b6107128484846103bd565b6104453385858585610bd0565b606061072a826108e6565b505f61074060408051602081019091525f815290565b90505f61074c84610cf8565b905081515f0361075d579392505050565b80511561078f57818160405160200161077792919061162c565b60405160208183030381529060405292505050919050565b61079884610d14565b949350505050565b600880545f918190836107b283611596565b91905055506107c18582610d85565b6107cb8185610d9e565b5f8181526009602052604090206107e2848261169e565b50846001600160a01b0316817faa2c3d3856cb18902c2b49fad7fdb436ade1c8a60eb16e327f470e6f2e1d0f648660405161081d9190611212565b60405180910390a3949350505050565b6001600160a01b039182165f90815260056020908152604080832093909416825291909152205460ff1690565b610862610a8b565b6001600160a01b03811661088b57604051631e4fbdf760e01b81525f60048201526024016103e2565b61089481610ab8565b50565b5f6001600160e01b031982166380ac58cd60e01b14806108c757506001600160e01b03198216635b5e139f60e01b145b806102f257506301ffc9a760e01b6001600160e01b03198316146102f2565b5f818152600260205260408120546001600160a01b0316806102f257604051637e27328960e01b8152600481018490526024016103e2565b6106868383836001610ded565b5f828152600260205260408120546001600160a01b039081169083161561095757610957818486610ef1565b6001600160a01b03811615610991576109725f855f80610ded565b6001600160a01b0381165f90815260036020526040902080545f190190555b6001600160a01b038516156109bf576001600160a01b0385165f908152600360205260409020805460010190555b5f8481526002602052604080822080546001600160a01b0319166001600160a01b0389811691821790925591518793918516917fddf252ad1be2c89b69c2b068fc378daa952ba7f163c4a11628f55a4df523b3ef91a4949350505050565b6040516331a9108f60e11b8152600481018290525f903090636352211e90602401602060405180830381865afa925050508015610a77575060408051601f3d908101601f19168201909252610a749181019061175a565b60015b610a8257505f919050565b50600192915050565b6007546001600160a01b031633146106eb5760405163118cdaa760e01b81523360048201526024016103e2565b600780546001600160a01b038381166001600160a01b0319831681179093556040519116919082907f8be0079c531659141344cd1fd0a4f28419497f9722a3daafe3b4186f6b6457e0905f90a35050565b6001600160a01b038316610b325760405163a9fbf51f60e01b81525f60048201526024016103e2565b6001600160a01b038216610b6457604051630b61174360e31b81526001600160a01b03831660048201526024016103e2565b6001600160a01b038381165f81815260056020908152604080832094871680845294825291829020805460ff191686151590811790915591519182527f17307eab39ab6107e8899845ad3d59bd9653f200f220920489ca2b5937696c31910160405180910390a3505050565b6001600160a01b0383163b15610cf157604051630a85bd0160e11b81526001600160a01b0384169063150b7a0290610c12908890889087908790600401611775565b6020604051808303815f875af1925050508015610c4c575060408051601f3d908101601f19168201909252610c49918101906117b1565b60015b610cb3573d808015610c79576040519150601f19603f3d011682016040523d82523d5f602084013e610c7e565b606091505b5080515f03610cab57604051633250574960e11b81526001600160a01b03851660048201526024016103e2565b805160208201fd5b6001600160e01b03198116630a85bd0160e11b14610cef57604051633250574960e11b81526001600160a01b03851660048201526024016103e2565b505b5050505050565b5f8181526006602052604090208054606091906104cc90611517565b6060610d1f826108e6565b505f610d3560408051602081019091525f815290565b90505f815111610d535760405180602001604052805f815250610d7e565b80610d5d84610f55565b604051602001610d6e92919061162c565b6040516020818303038152906040525b9392505050565b6103b9828260405180602001604052805f815250610fe5565b5f828152600660205260409020610db5828261169e565b506040518281527ff8e1a15aba9398e019f0b49df1a4fde98ee17ae345cb5f6b5e2c27f5033e8ce79060200160405180910390a15050565b8080610e0157506001600160a01b03821615155b15610ec2575f610e10846108e6565b90506001600160a01b03831615801590610e3c5750826001600160a01b0316816001600160a01b031614155b8015610e4f5750610e4d818461082d565b155b15610e785760405163a9fbf51f60e01b81526001600160a01b03841660048201526024016103e2565b8115610ec05783856001600160a01b0316826001600160a01b03167f8c5be1e5ebec7d5bd14f71427d1e84f3dd0314c0f7b2291e5b200ac8c7c3b92560405160405180910390a45b505b50505f90815260046020526040902080546001600160a01b0319166001600160a01b0392909216919091179055565b610efc838383610ffc565b610686576001600160a01b038316610f2a57604051637e27328960e01b8152600481018290526024016103e2565b60405163177e802f60e01b81526001600160a01b0383166004820152602481018290526044016103e2565b60605f610f618361105d565b60010190505f8167ffffffffffffffff811115610f8057610f806112b7565b6040519080825280601f01601f191660200182016040528015610faa576020820181803683370190505b5090508181016020015b5f19016f181899199a1a9b1b9c1cb0b131b232b360811b600a86061a8153600a8504945084610fb457509392505050565b610fef8383611134565b610686335f858585610bd0565b5f6001600160a01b038316158015906107985750826001600160a01b0316846001600160a01b031614806110355750611035848461082d565b806107985750505f908152600460205260409020546001600160a01b03908116911614919050565b5f8072184f03e93ff9f4daa797ed6e38ed64bf6a1f0160401b831061109b5772184f03e93ff9f4daa797ed6e38ed64bf6a1f0160401b830492506040015b6d04ee2d6d415b85acef810000000083106110c7576d04ee2d6d415b85acef8100000000830492506020015b662386f26fc1000083106110e557662386f26fc10000830492506010015b6305f5e10083106110fd576305f5e100830492506008015b612710831061111157612710830492506004015b60648310611123576064830492506002015b600a83106102f25760010192915050565b6001600160a01b03821661115d57604051633250574960e11b81525f60048201526024016103e2565b5f61116983835f61092b565b90506001600160a01b03811615610686576040516339e3563760e11b81525f60048201526024016103e2565b6001600160e01b031981168114610894575f80fd5b5f602082840312156111ba575f80fd5b8135610d7e81611195565b5f5b838110156111df5781810151838201526020016111c7565b50505f910152565b5f81518084526111fe8160208601602086016111c5565b601f01601f19169290920160200192915050565b602081525f610d7e60208301846111e7565b5f60208284031215611234575f80fd5b5035919050565b6001600160a01b0381168114610894575f80fd5b5f8060408385031215611260575f80fd5b823561126b8161123b565b946020939093013593505050565b5f805f6060848603121561128b575f80fd5b83356112968161123b565b925060208401356112a68161123b565b929592945050506040919091013590565b634e487b7160e01b5f52604160045260245ffd5b5f67ffffffffffffffff808411156112e5576112e56112b7565b604051601f8501601f19908116603f0116810190828211818310171561130d5761130d6112b7565b81604052809350858152868686011115611325575f80fd5b858560208301375f602087830101525050509392505050565b5f82601f83011261134d575f80fd5b610d7e838335602085016112cb565b5f806040838503121561136d575f80fd5b82356113788161123b565b9150602083013567ffffffffffffffff811115611393575f80fd5b61139f8582860161133e565b9150509250929050565b5f602082840312156113b9575f80fd5b8135610d7e8161123b565b5f80604083850312156113d5575f80fd5b82356113e08161123b565b9150602083013580151581146113f4575f80fd5b809150509250929050565b5f805f8060808587031215611412575f80fd5b843561141d8161123b565b9350602085013561142d8161123b565b925060408501359150606085013567ffffffffffffffff81111561144f575f80fd5b8501601f8101871361145f575f80fd5b61146e878235602084016112cb565b91505092959194509250565b5f805f6060848603121561148c575f80fd5b83356114978161123b565b9250602084013567ffffffffffffffff808211156114b3575f80fd5b6114bf8783880161133e565b935060408601359150808211156114d4575f80fd5b506114e18682870161133e565b9150509250925092565b5f80604083850312156114fc575f80fd5b82356115078161123b565b915060208301356113f48161123b565b600181811c9082168061152b57607f821691505b60208210810361154957634e487b7160e01b5f52602260045260245ffd5b50919050565b60208082526027908201527f536f6e69634950546f6b656e3a206f776e657220696e646578206f7574206f6660408201526620626f756e647360c81b606082015260800190565b5f600182016115b357634e487b7160e01b5f52601160045260245ffd5b5060010190565b5f8083546115c781611517565b600182811680156115df57600181146115f457611620565b60ff1984168752821515830287019450611620565b875f526020805f205f5b858110156116175781548a8201529084019082016115fe565b50505082870194505b50929695505050505050565b5f835161163d8184602088016111c5565b8351908301906116518183602088016111c5565b01949350505050565b601f82111561068657805f5260205f20601f840160051c8101602085101561167f5750805b601f840160051c820191505b81811015610cf1575f815560010161168b565b815167ffffffffffffffff8111156116b8576116b86112b7565b6116cc816116c68454611517565b8461165a565b602080601f8311600181146116ff575f84156116e85750858301515b5f19600386901b1c1916600185901b178555610cef565b5f85815260208120601f198616915b8281101561172d5788860151825594840194600190910190840161170e565b508582101561174a57878501515f19600388901b60f8161c191681555b5050505050600190811b01905550565b5f6020828403121561176a575f80fd5b8151610d7e8161123b565b6001600160a01b03858116825284166020820152604081018390526080606082018190525f906117a7908301846111e7565b9695505050505050565b5f602082840312156117c1575f80fd5b8151610d7e8161119556fea2646970667358221220e91accee75c40302788dddadfd2333828052b6b477ae4d3815efb0ef1b2ac9b064736f6c63430008180033",
  "linkReferences": {},
  "deployedLinkReferences": {}
}