{
  "_format": "hh-sol-artifact-1",
  "contractName": "SonicVoiceNFT",
  "sourceName": "contracts/SonicVoiceNFT.sol",
  "abi": [
    {
      "inputs": [
        {
          "internalType": "address",
          "name": "initialOwner",
          "type": "address"
        }
      ],
      "stateMutability": "nonpayable",
      "type": "constructor"
    },
    {
      "inputs": [
        {
          "internalType": "address",
          "name": "sender",
          "type": "address"
        },
        {
          "internalType": "uint256",
          "name": "tokenId",
          "type": "uint256"
        },
        {
          "internalType": "address",
          "name": "owner",
          "type": "address"
        }
      ],
      "name": "ERC721IncorrectOwner",
      "type": "error"
    },
    {
      "inputs": [
        {
          "internalType": "address",
          "name": "operator",
          "type": "address"
        },
        {
          "internalType": "uint256",
          "name": "tokenId",
          "type": "uint256"
        }
      ],
      "name": "ERC721InsufficientApproval",
      "type": "error"
    },
    {
      "inputs": [
        {
          "internalType": "address",
          "name": "approver",
          "type": "address"
        }
      ],
      "name": "ERC721InvalidApprover",
      "type": "error"
    },
    {
      "inputs": [
        {
          "internalType": "address",
          "name": "operator",
          "type": "address"
        }
      ],
      "name": "ERC721InvalidOperator",
      "type": "error"
    },
    {
      "inputs": [
        {
          "internalType": "address",
          "name": "owner",
          "type": "address"
        }
      ],
      "name": "ERC721InvalidOwner",
      "type": "error"
    },
    {
      "inputs": [
        {
          "internalType": "address",
          "name": "receiver",
          "type": "address"
        }
      ],
      "name": "ERC721InvalidReceiver",
      "type": "error"
    },
    {
      "inputs": [
        {
          "internalType": "address",
          "name": "sender",
          "type": "address"
        }
      ],
      "name": "ERC721InvalidSender",
      "type": "error"
    },
    {
      "inputs": [
        {
          "internalType": "uint256",
          "name": "tokenId",
          "type": "uint256"
        }
      ],
      "name": "ERC721NonexistentToken",
      "type": "error"
    },
    {
      "inputs": [
        {
          "internalType": "address",
          "name": "owner",
          "type": "address"
        }
      ],
      "name": "OwnableInvalidOwner",
      "type": "error"
    },
    {
      "inputs": [
        {
          "internalType": "address",
          "name": "account",
          "type": "address"
        }
      ],
      "name": "OwnableUnauthorizedAccount",
      "type": "error"
    },
    {
      "anonymous": false,
      "inputs": [
        {
          "indexed": true,
          "internalType": "address",
          "name": "owner",
          "type": "address"
        },
        {
          "indexed": true,
          "internalType": "address",
          "name": "approved",
          "type": "address"
        },
        {
          "indexed": true,
          "internalType": "uint256",
          "name": "tokenId",
          "type": "uint256"
        }
      ],
      "name": "Approval",
      "type": "event"
    },
    {
      "anonymous": false,
      "inputs": [
        {
          "indexed": true,
          "internalType": "address",
          "name": "owner",
          "type": "address"
        },
        {
          "indexed": true,
          "internalType": "address",
          "name": "operator",
          "type": "address"
        },
        {
          "indexed": false,
          "internalType": "bool",
          "name": "approved",
          "type": "bool"
        }
      ],
      "name": "ApprovalForAll",
      "type": "event"
    },
    {
      "anonymous": false,
      "inputs": [
        {
          "indexed": false,
          "internalType": "uint256",
          "name": "_fromTokenId",
          "type": "uint256"
        },
        {
          "indexed": false,
          "internalType": "uint256",
          "name": "_toTokenId",
          "type": "uint256"
        }
      ],
      "name": "BatchMetadataUpdate",
      "type": "event"
    },
    {
      "anonymous": false,
      "inputs": [
        {
          "indexed": false,
          "internalType": "uint256",
          "name": "_tokenId",
          "type": "uint256"
        }
      ],
      "name": "MetadataUpdate",
      "type": "event"
    },
    {
      "anonymous": false,
      "inputs": [
        {
          "indexed": true,
          "internalType": "uint256",
          "name": "tokenId",
          "type": "uint256"
        },
        {
          "indexed": true,
          "internalType": "address",
          "name": "to",
          "type": "address"
        },
        {
          "indexed": false,
          "internalType": "string",
          "name": "tokenURI",
          "type": "string"
        }
      ],
      "name": "Minted",
      "type": "event"
    },
    {
      "anonymous": false,
      "inputs": [
        {
          "indexed": true,
          "internalType": "address",
          "name": "previousOwner",
          "type": "address"
        },
        {
          "indexed": true,
          "internalType": "address",
          "name": "newOwner",
          "type": "address"
        }
      ],
      "name": "OwnershipTransferred",
      "type": "event"
    },
    {
      "anonymous": false,
      "inputs": [
        {
          "indexed": true,
          "internalType": "address",
          "name": "from",
          "type": "address"
        },
        {
          "indexed": true,
          "internalType": "address",
          "name": "to",
          "type": "address"
        },
        {
          "indexed": true,
          "internalType": "uint256",
          "name": "tokenId",
          "type": "uint256"
        }
      ],
      "name": "Transfer",
      "type": "event"
    },
    {
      "inputs": [
        {
          "internalType": "address",
          "name": "to",
          "type": "address"
        },
        {
          "internalType": "uint256",
          "name": "tokenId",
          "type": "uint256"
        }
      ],
      "name": "approve",
      "outputs": [],
      "stateMutability": "nonpayable",
      "type": "function"
    },
    {
      "inputs": [
        {
          "internalType": "address",
          "name": "owner",
          "type": "address"
        }
      ],
      "name": "balanceOf",
      "outputs": [
        {
          "internalType": "uint256",
          "name": "",
          "type": "uint256"
        }
      ],
      "stateMutability": "view",
      "type": "function"
    },
    {
      "inputs": [
        {
          "internalType": "uint256",
          "name": "tokenId",
          "type": "uint256"
        }
      ],
      "name": "getApproved",
      "outputs": [
        {
          "internalType": "address",
          "name": "",
          "type": "address"
        }
      ],
      "stateMutability": "view",
      "type": "function"
    },
    {
      "inputs": [
        {
          "internalType": "address",
          "name": "owner",
          "type": "address"
        },
        {
          "internalType": "address",
          "name": "operator",
          "type": "address"
        }
      ],
      "name": "isApprovedForAll",
      "outputs": [
        {
          "internalType": "bool",
          "name": "",
          "type": "bool"
        }
      ],
      "stateMutability": "view",
      "type": "function"
    },
    {
      "inputs": [
        {
          "internalType": "address",
          "name": "to",
          "type": "address"
        },
        {
          "internalType": "string",
          "name": "tokenURI_",
          "type": "string"
        }
      ],
      "name": "mint",
      "outputs": [
        {
          "internalType": "uint256",
          "name": "tokenId",
          "type": "uint256"
        }
      ],
      "stateMutability": "nonpayable",
      "type": "function"
    },
    {
      "inputs": [],
      "name": "name",
      "outputs": [
        {
          "internalType": "string",
          "name": "",
          "type": "string"
        }
      ],
      "stateMutability": "view",
      "type": "function"
    },
    {
      "inputs": [],
      "name": "nextTokenId",
      "outputs": [
        {
          "internalType": "uint256",
          "name": "",
          "type": "uint256"
        }
      ],
      "stateMutability": "view",
      "type": "function"
    },
    {
      "inputs": [],
      "name": "owner",
      "outputs": [
        {
          "internalType": "address",
          "name": "",
          "type": "address"
        }
      ],
      "stateMutability": "view",
      "type": "function"
    },
    {
      "inputs": [
        {
          "internalType": "uint256",
          "name": "tokenId",
          "type": "uint256"
        }
      ],
      "name": "ownerOf",
      "outputs": [
        {
          "internalType": "address",
          "name": "",
          "type": "address"
        }
      ],
      "stateMutability": "view",
      "type": "function"
    },
    {
      "inputs": [],
      "name": "renounceOwnership",
      "outputs": [],
      "stateMutability": "nonpayable",
      "type": "function"
    },
    {
      "inputs": [
        {
          "internalType": "address",
          "name": "from",
          "type": "address"
        },
        {
          "internalType": "address",
          "name": "to",
          "type": "address"
        },
        {
          "internalType": "uint256",
          "name": "tokenId",
          "type": "uint256"
        }
      ],
      "name": "safeTransferFrom",
      "outputs": [],
      "stateMutability": "nonpayable",
      "type": "function"
    },
    {
      "inputs": [
        {
          "internalType": "address",
          "name": "from",
          "type": "address"
        },
        {
          "internalType": "address",
          "name": "to",
          "type": "address"
        },
        {
          "internalType": "uint256",
          "name": "tokenId",
          "type": "uint256"
        },
        {
          "internalType": "bytes",
          "name": "data",
          "type": "bytes"
        }
      ],
      "name": "safeTransferFrom",
      "outputs": [],
      "stateMutability": "nonpayable",
      "type": "function"
    },
    {
      "inputs": [
        {
          "internalType": "address",
          "name": "operator",
          "type": "address"
        },
        {
          "internalType": "bool",
          "name": "approved",
          "type": "bool"
        }
      ],
      "name": "setApprovalForAll",
      "outputs": [],
      "stateMutability": "nonpayable",
      "type": "function"
    },
    {
      "inputs": [
        {
          "internalType": "bytes4",
          "name": "interfaceId",
          "type": "bytes4"
        }
      ],
      "name": "supportsInterface",
      "outputs": [
        {
          "internalType": "bool",
          "name": "",
          "type": "bool"
        }
      ],
      "stateMutability": "view",
      "type": "function"
    },
    {
      "inputs": [],
      "name": "symbol",
      "outputs": [
        {
          "internalType": "string",
          "name": "",
          "type": "string"
        }
      ],
      "stateMutability": "view",
      "type": "function"
    },
    {
      "inputs": [
        {
          "internalType": "uint256",
          "name": "tokenId",
          "type": "uint256"
        }
      ],
      "name": "tokenURI",
      "outputs": [
        {
          "internalType": "string",
          "name": "",
          "type": "string"
        }
      ],
      "stateMutability": "view",
      "type": "function"
    },
    {
      "inputs": [],
      "name": "totalMinted",
      "outputs": [
        {
          "internalType": "uint256",
          "name": "",
          "type": "uint256"
        }
      ],
      "stateMutability": "view",
      "type": "function"
    },
    {
      "inputs": [
        {
          "internalType": "address",
          "name": "from",
          "type": "address"
        },
        {
          "internalType": "address",
          "name": "to",
          "type": "address"
        },
        {
          "internalType": "uint256",
          "name": "tokenId",
          "type": "uint256"
        }
      ],
      "name": "transferFrom",
      "outputs": [],
      "stateMutability": "nonpayable",
      "type": "function"
    },
    {
      "inputs": [
        {
          "internalType": "address",
          "name": "newOwner",
          "type": "address"
        }
      ],
      "name": "transferOwnership",
      "outputs": [],
      "stateMutability": "nonpayable",
      "type": "function"
    }
  ],
  "bytecode": "0x608060405234801562000010575f80fd5b506040516200174438038062001744833981016040819052620000339162000131565b806040518060400160405280600e81526020016d0536f6e696320566f6963652049560941b815250604051806040016040528060048152602001630535649560e41b815250815f9081620000889190620001fe565b506001620000978282620001fe565b5050506001600160a01b038116620000c857604051631e4fbdf760e01b81525f600482015260240160405180910390fd5b620000d381620000e0565b50506001600855620002ca565b600780546001600160a01b038381166001600160a01b0319831681179093556040519116919082907f8be0079c531659141344cd1fd0a4f28419497f9722a3daafe3b4186f6b6457e0905f90a35050565b5f6020828403121562000142575f80fd5b81516001600160a01b038116811462000159575f80fd5b9392505050565b634e487b7160e01b5f52604160045260245ffd5b600181811c908216806200018957607f821691505b602082108103620001a857634e487b7160e01b5f52602260045260245ffd5b50919050565b601f821115620001f957805f5260205f20601f840160051c81016020851015620001d55750805b601f840160051c820191505b81811015620001f6575f8155600101620001e1565b50505b505050565b81516001600160401b038111156200021a576200021a62000160565b62000232816200022b845462000174565b84620001ae565b602080601f83116001811462000268575f8415620002505750858301515b5f19600386901b1c1916600185901b178555620002c2565b5f85815260208120601f198616915b82811015620002985788860151825594840194600190910190840162000277565b5085821015620002b657878501515f19600388901b60f8161c191681555b505060018460011b0185555b505050505050565b61146c80620002d85f395ff3fe608060405234801561000f575f80fd5b506004361061011c575f3560e01c806375794a3c116100a9578063b88d4fde1161006e578063b88d4fde1461023b578063c87b56dd1461024e578063d0def52114610261578063e985e9c514610274578063f2fde38b14610287575f80fd5b806375794a3c146101ff5780638da5cb5b1461020757806395d89b4114610218578063a22cb46514610220578063a2309ff814610233575f80fd5b806323b872dd116100ef57806323b872dd1461019d57806342842e0e146101b05780636352211e146101c357806370a08231146101d6578063715018a6146101f7575f80fd5b806301ffc9a71461012057806306fdde0314610148578063081812fc1461015d578063095ea7b314610188575b5f80fd5b61013361012e366004610f6e565b61029a565b60405190151581526020015b60405180910390f35b6101506102aa565b60405161013f9190610fd6565b61017061016b366004610fe8565b610339565b6040516001600160a01b03909116815260200161013f565b61019b61019636600461101a565b610360565b005b61019b6101ab366004611042565b61036f565b61019b6101be366004611042565b6103fd565b6101706101d1366004610fe8565b61041c565b6101e96101e436600461107b565b610426565b60405190815260200161013f565b61019b61046b565b6008546101e9565b6007546001600160a01b0316610170565b61015061047e565b61019b61022e366004611094565b61048d565b6101e9610498565b61019b610249366004611154565b6104ad565b61015061025c366004610fe8565b6104c5565b6101e961026f3660046111cb565b6104d0565b610133610282366004611229565b610537565b61019b61029536600461107b565b610564565b5f6102a4826105a1565b92915050565b60605f80546102b89061125a565b80601f01602080910402602001604051908101604052809291908181526020018280546102e49061125a565b801561032f5780601f106103065761010080835404028352916020019161032f565b820191905f5260205f20905b81548152906001019060200180831161031257829003601f168201915b5050505050905090565b5f610343826105c5565b505f828152600460205260409020546001600160a01b03166102a4565b61036b8282336105fd565b5050565b6001600160a01b03821661039d57604051633250574960e11b81525f60048201526024015b60405180910390fd5b5f6103a983833361060a565b9050836001600160a01b0316816001600160a01b0316146103f7576040516364283d7b60e01b81526001600160a01b0380861660048301526024820184905282166044820152606401610394565b50505050565b61041783838360405180602001604052805f8152506104ad565b505050565b5f6102a4826105c5565b5f6001600160a01b038216610450576040516322718ad960e21b81525f6004820152602401610394565b506001600160a01b03165f9081526003602052604090205490565b6104736106fc565b61047c5f610729565b565b6060600180546102b89061125a565b61036b33838361077a565b5f60016008546104a89190611292565b905090565b6104b884848461036f565b6103f73385858585610841565b60606102a482610969565b60088054600181019091556104e583826109ea565b6104ef8183610a03565b826001600160a01b0316817f3b8a974a6971dbe70c8718ec80406b2790d2aa5477b6a5bed3d94fa19e06d60d846040516105299190610fd6565b60405180910390a392915050565b6001600160a01b039182165f90815260056020908152604080832093909416825291909152205460ff1690565b61056c6106fc565b6001600160a01b03811661059557604051631e4fbdf760e01b81525f6004820152602401610394565b61059e81610729565b50565b5f6001600160e01b03198216632483248360e11b14806102a457506102a482610a52565b5f818152600260205260408120546001600160a01b0316806102a457604051637e27328960e01b815260048101849052602401610394565b6104178383836001610aa1565b5f828152600260205260408120546001600160a01b039081169083161561063657610636818486610ba5565b6001600160a01b03811615610670576106515f855f80610aa1565b6001600160a01b0381165f90815260036020526040902080545f190190555b6001600160a01b0385161561069e576001600160a01b0385165f908152600360205260409020805460010190555b5f8481526002602052604080822080546001600160a01b0319166001600160a01b0389811691821790925591518793918516917fddf252ad1be2c89b69c2b068fc378daa952ba7f163c4a11628f55a4df523b3ef91a4949350505050565b6007546001600160a01b0316331461047c5760405163118cdaa760e01b8152336004820152602401610394565b600780546001600160a01b038381166001600160a01b0319831681179093556040519116919082907f8be0079c531659141344cd1fd0a4f28419497f9722a3daafe3b4186f6b6457e0905f90a35050565b6001600160a01b0383166107a35760405163a9fbf51f60e01b81525f6004820152602401610394565b6001600160a01b0382166107d557604051630b61174360e31b81526001600160a01b0383166004820152602401610394565b6001600160a01b038381165f81815260056020908152604080832094871680845294825291829020805460ff191686151590811790915591519182527f17307eab39ab6107e8899845ad3d59bd9653f200f220920489ca2b5937696c31910160405180910390a3505050565b6001600160a01b0383163b1561096257604051630a85bd0160e11b81526001600160a01b0384169063150b7a02906108839088908890879087906004016112b1565b6020604051808303815f875af19250505080156108bd575060408051601f3d908101601f191682019092526108ba918101906112ed565b60015b610924573d8080156108ea576040519150601f19603f3d011682016040523d82523d5f602084013e6108ef565b606091505b5080515f0361091c57604051633250574960e11b81526001600160a01b0385166004820152602401610394565b805160208201fd5b6001600160e01b03198116630a85bd0160e11b1461096057604051633250574960e11b81526001600160a01b0385166004820152602401610394565b505b5050505050565b6060610974826105c5565b505f61098a60408051602081019091525f815290565b90505f61099684610c09565b905081515f036109a7579392505050565b8051156109d95781816040516020016109c1929190611308565b60405160208183030381529060405292505050919050565b6109e284610ca8565b949350505050565b61036b828260405180602001604052805f815250610d19565b5f828152600660205260409020610a1a828261137a565b506040518281527ff8e1a15aba9398e019f0b49df1a4fde98ee17ae345cb5f6b5e2c27f5033e8ce79060200160405180910390a15050565b5f6001600160e01b031982166380ac58cd60e01b1480610a8257506001600160e01b03198216635b5e139f60e01b145b806102a457506301ffc9a760e01b6001600160e01b03198316146102a4565b8080610ab557506001600160a01b03821615155b15610b76575f610ac4846105c5565b90506001600160a01b03831615801590610af05750826001600160a01b0316816001600160a01b031614155b8015610b035750610b018184610537565b155b15610b2c5760405163a9fbf51f60e01b81526001600160a01b0384166004820152602401610394565b8115610b745783856001600160a01b0316826001600160a01b03167f8c5be1e5ebec7d5bd14f71427d1e84f3dd0314c0f7b2291e5b200ac8c7c3b92560405160405180910390a45b505b50505f90815260046020526040902080546001600160a01b0319166001600160a01b0392909216919091179055565b610bb0838383610d30565b610417576001600160a01b038316610bde57604051637e27328960e01b815260048101829052602401610394565b60405163177e802f60e01b81526001600160a01b038316600482015260248101829052604401610394565b5f818152600660205260409020805460609190610c259061125a565b80601f0160208091040260200160405190810160405280929190818152602001828054610c519061125a565b8015610c9c5780601f10610c7357610100808354040283529160200191610c9c565b820191905f5260205f20905b815481529060010190602001808311610c7f57829003601f168201915b50505050509050919050565b6060610cb3826105c5565b505f610cc960408051602081019091525f815290565b90505f815111610ce75760405180602001604052805f815250610d12565b80610cf184610d91565b604051602001610d02929190611308565b6040516020818303038152906040525b9392505050565b610d238383610e21565b610417335f858585610841565b5f6001600160a01b038316158015906109e25750826001600160a01b0316846001600160a01b03161480610d695750610d698484610537565b806109e25750505f908152600460205260409020546001600160a01b03908116911614919050565b60605f610d9d83610e82565b60010190505f8167ffffffffffffffff811115610dbc57610dbc6110cd565b6040519080825280601f01601f191660200182016040528015610de6576020820181803683370190505b5090508181016020015b5f19016f181899199a1a9b1b9c1cb0b131b232b360811b600a86061a8153600a8504945084610df057509392505050565b6001600160a01b038216610e4a57604051633250574960e11b81525f6004820152602401610394565b5f610e5683835f61060a565b90506001600160a01b03811615610417576040516339e3563760e11b81525f6004820152602401610394565b5f8072184f03e93ff9f4daa797ed6e38ed64bf6a1f0160401b8310610ec05772184f03e93ff9f4daa797ed6e38ed64bf6a1f0160401b830492506040015b6d04ee2d6d415b85acef81000000008310610eec576d04ee2d6d415b85acef8100000000830492506020015b662386f26fc100008310610f0a57662386f26fc10000830492506010015b6305f5e1008310610f22576305f5e100830492506008015b6127108310610f3657612710830492506004015b60648310610f48576064830492506002015b600a83106102a45760010192915050565b6001600160e01b03198116811461059e575f80fd5b5f60208284031215610f7e575f80fd5b8135610d1281610f59565b5f5b83811015610fa3578181015183820152602001610f8b565b50505f910152565b5f8151808452610fc2816020860160208601610f89565b601f01601f19169290920160200192915050565b602081525f610d126020830184610fab565b5f60208284031215610ff8575f80fd5b5035919050565b80356001600160a01b0381168114611015575f80fd5b919050565b5f806040838503121561102b575f80fd5b61103483610fff565b946020939093013593505050565b5f805f60608486031215611054575f80fd5b61105d84610fff565b925061106b60208501610fff565b9150604084013590509250925092565b5f6020828403121561108b575f80fd5b610d1282610fff565b5f80604083850312156110a5575f80fd5b6110ae83610fff565b9150602083013580151581146110c2575f80fd5b809150509250929050565b634e487b7160e01b5f52604160045260245ffd5b5f67ffffffffffffffff808411156110fb576110fb6110cd565b604051601f8501601f19908116603f01168101908282118183101715611123576111236110cd565b8160405280935085815286868601111561113b575f80fd5b858560208301375f602087830101525050509392505050565b5f805f8060808587031215611167575f80fd5b61117085610fff565b935061117e60208601610fff565b925060408501359150606085013567ffffffffffffffff8111156111a0575f80fd5b8501601f810187136111b0575f80fd5b6111bf878235602084016110e1565b91505092959194509250565b5f80604083850312156111dc575f80fd5b6111e583610fff565b9150602083013567ffffffffffffffff811115611200575f80fd5b8301601f81018513611210575f80fd5b61121f858235602084016110e1565b9150509250929050565b5f806040838503121561123a575f80fd5b61124383610fff565b915061125160208401610fff565b90509250929050565b600181811c9082168061126e57607f821691505b60208210810361128c57634e487b7160e01b5f52602260045260245ffd5b50919050565b818103818111156102a457634e487b7160e01b5f52601160045260245ffd5b6001600160a01b03858116825284166020820152604081018390526080606082018190525f906112e390830184610fab565b9695505050505050565b5f602082840312156112fd575f80fd5b8151610d1281610f59565b5f8351611319818460208801610f89565b83519083019061132d818360208801610f89565b01949350505050565b601f82111561041757805f5260205f20601f840160051c8101602085101561135b5750805b601f840160051c820191505b81811015610962575f8155600101611367565b815167ffffffffffffffff811115611394576113946110cd565b6113a8816113a2845461125a565b84611336565b602080601f8311600181146113db575f84156113c45750858301515b5f19600386901b1c1916600185901b178555610960565b5f85815260208120601f198616915b82811015611409578886015182559484019460019091019084016113ea565b508582101561142657878501515f19600388901b60f8161c191681555b5050505050600190811b0190555056fea26469706673582212205af3775ed5f4afddb80ad6fffe9191f5f3ff1c52836daf6d89c9ad4dc69c5c4464736f6c63430008180033",
  "linkReferences": {},
  "deployedLinkReferences": {}
}